S12300006720474345203230323580FD0DF85028A6444F444745204348414C4C454E4745F7
S105002080005A
S1230021008E0000271BCE006033C9090D33C9000033C90000108EC880A6C0A7A0301F26AB
S1220041F88E000B270A108EC8806FA0301F26FABD090F5D2706CC0000FDCBFE7EF00017
S12300607FC880CC0000FDC88139F6C880C1F02211C150271BC1A52717F6C880CB05F7C884
S123008080397FC8807CC88226037CC8817E0724BD0724F6C880CB05F7C88039007EC9FFCB
S12300A0006E00F808FF920000F000FF920000F8F8FF00920008F8FF6E00001000FF6E0051
S12300C0008A7F0100763FFF920000F000FF92000076FF01007EC9FF006E00F808FF920090
S12300E000F8F8FF009200F8F8FF920000F808FF006E007E0901007EC9FF006E00F808FF52
S1230100920000F000FF920000F8F8FF0092007E00FF006E000009010076C1FF920000F892
S123012008FF006E007608FF920000F000FF920000760101007E37FF009200F8F8FF920077
S123014000F808FF006E00F808FF920000F8F8FF0092007E77010076C1FF920000F000FF6F
S1230160920000F808FF006E000808FF6E000008F8FF009200007701007EC9FF006E00F84A
S123018008FF920000F000FF920000760101007EC9FF006E00F808FF920000F000FF920003
S12301A000F8F8FF00920008F8FF6E00001000FF6E00008A08FF006E00000901008A3FFFFF
S12301C06E00001000FF6E000008F8FF009200F8F8FF920000F808FF006E00000901009C0B
S12301E000C400D400F60118013401560178018E01BCFFC070FFC09000007FFF4070FF4018
S12302009000007FFFC070FFC09000007F00007FFF7F7F000081FF817F00607F00003901B9
S12302207FC88339FFE0F800E0F8FFE0F800E0F8FFC0F000C0F0FFC0F000C0F0FFA0E80014
S1230240A0E8FFA0E800A0E8FF80E00080E0FF80E00080E0FF80E0FFE0F801FFE00800E087
S123026008FFE00800E008FFC01000C010FFC01000C010FFA01800A018FFA01800A018FF88
S11C02808020008020FF8020008020FF8020FFE008015D51453A312A22B1
S12302997FC884393420327CF6C8834F1F01E68902924FEDE4108E00033420AE62BD09237A
S12302B93262AFE4F6C8804FED621F104F3406AE64BD09231F104F10AFE41F01BD09121F33
S12302D910F7C884326635A0327DBDF2A5BDF354C67FD704C624E7E2C6F1BD0936C6A8D76F
S12302F904C680E7E2CB2EBD0931BDF354C67FD704F6C884E7633262C1021027006EC6FB71
S1230319E061E7E4C609E06158583404E661BD09363261C610D7048E0224BDF410BDF354BC
S1230339C67FD704F6C884E762C1021027005DC609E06258583404E663CB05E763BD093646
S12303593261C610D7048E025BBDF410BDF354C67FD704C624E7E2C60FBD0936C6A8D7049F
S1230379C680E7E2C652BD0931326539C624E7E2C6FBBD0936C6FCE7E2CB03BD0931C6FCF0
S1230399E7E2CB03BD0936326316FF87C624E7E2C605BD0936C6FCE7E2C601BD0931C6FCF7
S12303B9E7E2C601BD0936326316FF9600A0B0FF00B0FF7F00FF0050FF8000001000FF10EA
S12303D93C000028FFF03C00F000FF0050FF7F00FF00B0FF8000002000FF00B0FF00B00008
S12303F94000FF103CFF0028FFF03CFF70C0FF00E000E430FF0030FF10F8FF00D00000D00C
S1230419FF00D0FFF0F8FF0030001C10FF90C00020D8FF2800FF003CFFDC00000078FF248F
S123043900FF003CFFD80000149CFF10F8FF00E8FFF0F801000C78FF8800FFDC18FF007892
S1230459FF2418FF7800FF24E8FF0088FFDCE800F400FF18A6FF00C4FFE8A6000C00FF88E4
S123047900FFDC18FF2418FF0C0000E8DCFF184E0000A6FF0078FF00780000A6FFE860007C
S1230499F44500F445FF24E8FF7800FF241800D018FF001EFF180CFF5400FF18F4FFE8F4AF
S12304B9FFAC00FFE80C004500004500FF0094FFE8F4FFC4000000E2FF2A1E002A18FF3C20
S12304D92A00F4F4FF0030FFE8F4FF00D0002418FF00C400F4EEFF00D0FFE8DCFF002A0078
S12304F9243CFFC094FFC094FFC094000C00FF2418FFE81200ACF700ACF7FF0088FF24E86E
S1230519FF7800FF2418FF007800FA2AFF4800FF180CFF006CFFE8F4FFF40000240CFFEEB1
S12305390C00CAE2FF2442FF002AFFDCE801000C88FF8800FFDCE8FF0088FF24E8FF7800AD
S1230559FF2418FF0078FFDC1800F400FF185AFF003CFFE85A000C00FF8800FFDCE8FF247F
S1230579E8FF0C0000E824FF18B200005AFF0088FF008800005AFFE8A000F4BB00F4BBFFF0
S12305992418FF7800FF24E800D0E8FF00E2FF18F4FF5400FF180CFFE80CFFAC00FFE8F4ED
S12305B9004500004500FF006CFFE80CFFC40000001EFF2AE2002AE8FF3CD600F40CFF0028
S12305D9D0FFE80CFF00300024E8FF003C00F412FF0030FFE824FF00D60024C4FFC06CFF9E
S12305F9C06CFFC06C000C00FF24E8FFE8EE00AC0900AC09FF0078FF2418FF7800FF24E8FD
S1230619FF008800FAD6FF4800FF18F4FF0094FFE80CFFF4000024F4FFEEF400CA1EFF2497
S10B0639BEFF00D6FFDC18012E
S1230641C601F7C88539C101270FC1FF270139F6C88527FA5AF7C88539F6C885C10227EEE2
S12306615CF7C88539327FBDF1BAF6C811E7E4C501272BF6C8852639C602E4E4270CF6C8AE
S12306818327045AF7C883326139C608E4E427F7F6C883C10627F05CF7C883326139C60438
S12306A1E4E427D4F6C885C10227CD5CF7C88520C75AF7C88520C1AE0052C60AD7048E0435
S12306C14D7EF410C610D7048E03C57EF410C60AD7048E05477EF41006BB06C506CF327EA5
S12306E1BDF2A5BDF354C67FD704F6C8854F1F01C690E7E2E68906B8BD0936F6C8854FED04
S10F07016158491F01AD9906D9326339D3
S123070D7FC8867FC8877FC8887FC8897FC88A39010203040506073276F6C8834F1F01E62A
S123072D89071DFBC886E766C109102F00C0E66686673DEDE41F894F5757E765E666595966
S123074DC40150E762E665E062E762FBC887E767E662860A3D1F011F10E06650F7C886E697
S123076D67C109102F0081E66786673DEDE41F894F5757E764E6675959C40150E7E4E66416
S123078DE0E4E7E4FBC888E768E6E4860A3D1F011F10E06750F7C887E668C1092F56E66871
S12307AD86673DEDE41F894F5757E7E4E6685959C40150E769E6E4E069FBC889E7698667BC
S12307CD3DEDE41F894F5757E763E6695959C40150E06350860A3DE06950F7C888E669C1A5
S12307ED092E08F7C8892003F7C887326A39F7C886326A39F7C888326A39010102020303E1
S123080D0400050005000500327EBDF2A5BDF354C67FD704C66EE7E2CB2EBD0936C609D7F4
S123082D04F6C8891D58491F01AE8901DEBDF4106FE2C67FBD0936F6C8881D58491F01AE43
S123084D8901DEBDF4106FE2C67FBD0936F6C8871D58491F01AE8901DEBDF4106FE2C67F3C
S123086DBD0936F6C8861D58491F01AE8901DEBDF4106FE2C67FBD0936BE01DEBDF410C6BC
S123088D42D704C6D4E7E2C681BD0936C606D7048E01F2BDF410C606D704F6C8834F1F0144
S12308ADE68908071D58491F01AE8901DEBDF410C68AE7E2C62ABD0936BDF2C5C676E7E276
S12308CDC667BD0936F6C8834F1F01E689080E1DED6858491F01AE8901DE326A7EF410BD85
S12308ED0060BD0220BD0299BD0641BDF192BD006ABD029DBD02E1BD0666BD06DFBD081544
S123090D20E9BD08ECEC6226037EF0003410BD093B32621F0139EC6226037EF0003410BD0F
S123092D093B3590A6627EF3DFA6627EF312327D6F606C604D2B066C60584920F8ED61EC33
S123094D656F656F66A3612406E3611CFE20021A0169666965646166626A6026E8326339DF
S9030000FC
