S12300006720474345203230323580FD0DF85028A6444F444745204348414C4C454E4745F7
S105002080005A
S1230021008E0000271BCE006033C907B433C9000033C90000108EC880A6C0A7A0301F2606
S1220041F88E0008270A108EC8806FA0301F26FABD07B65D2706CC0000FDCBFE7EF00075
S12300607FC880CC0000FDC88139F6C880C1F02206CB05F7C880397FC8807CC88226037CD9
S1230080C88139007EC9FF006E00F808FF920000F000FF920000F8F8FF00920008F8FF6E26
S12300A000001000FF6E00008A7F0100763FFF920000F000FF92000076FF01007EC9FF0032
S12300C06E00F808FF920000F8F8FF009200F8F8FF920000F808FF006E007E0901007EC9DF
S12300E0FF006E00F808FF920000F000FF920000F8F8FF0092007E00FF006E000009010007
S123010076C1FF920000F808FF006E007608FF920000F000FF920000760101007E37FF00EA
S12301209200F8F8FF920000F808FF006E00F808FF920000F8F8FF0092007E77010076C1FC
S1230140FF920000F000FF920000F808FF006E000808FF6E000008F8FF0092000077010096
S12301607EC9FF006E00F808FF920000F000FF920000760101007EC9FF006E00F808FF92F8
S12301800000F000FF920000F8F8FF00920008F8FF6E00001000FF6E00008A08FF006E0070
S12301A0000901008A3FFF6E00001000FF6E000008F8FF009200F8F8FF920000F808FF006D
S12301C06E00000901008300AB00BB00DD00FF011B013D015F017501A3FFC160FFC1A0008A
S12301E07E70FFC160FFC1A0007E70FFC160FFC1A000007F000040FF3F3F0000C1FFC13F23
S1070200004545016B
S12302047FC88339FFE0F800E0F8FFE0F800E0F8FFC0F000C0F0FFC0F000C0F0FFA0E80030
S1230224A0E8FFA0E800A0E8FF80E00080E0FF80E00080E0FF80E0FFE0F801FFE00800E0A3
S123024408FFE00800E008FFC01000C010FFC01000C010FFA01800A018FFA01800A018FFA4
S11C02648020008020FF8020008020FF8020FFE008015D51453A312A22CD
S123027D7FC884393420327CF6C8834F1F01E68902764FEDE4108E00033420AE62BD07CA0D
S123029D3262AFE4F6C8804FED621F104F3406AE64BD07CA1F104F10AFE41F01BD07B91F05
S12302BD10F7C884326635A0327DBDF2A5BDF354C67FD704C624E7E2C6F1BD07DDC6A8D7E6
S12302DD04C680E7E2CB2EBD07D8BDF354C67FD704F6C884E7633262C1021027006EC6FBE8
S12302FDE061E7E4C609E06158583404E661BD07DD3261C610D7048E0208BDF410BDF35450
S123031DC67FD704F6C884E762C1021027005DC609E06258583404E663CB05E763BD07DDBD
S123033D3261C610D7048E023FBDF410BDF354C67FD704C624E7E2C60FBD07DDC6A8D70432
S123035DC680E7E2C652BD07D8326539C624E7E2C6FBBD07DDC6FCE7E2CB03BD07D8C6FC1D
S123037DE7E2CB03BD07DD326316FF87C624E7E2C605BD07DDC6FCE7E2C601BD07D8C6FC24
S123039DE7E2C601BD07DD326316FF9600A0B0FF00B0FF7F00FF0050FF8000001000FF1061
S12303BD3C000028FFF03C00F000FF0050FF7F00FF00B0FF8000002000FF00B0FF00B00024
S12303DD4000FF103CFF0028FFF03CFF70C0FF00E000E430FF0030FF10F8FF00D00000D028
S12303FDFF00D0FFF0F8FF0030001C10FF90C00020D8FF2800FF003CFFDC00000078FF24AC
S123041D00FF003CFFD80000149CFF10F8FF00E8FFF0F801000C78FF8800FFDC18FF0078AE
S123043DFF2418FF7800FF24E8FF0088FFDCE800F400FF18A6FF00C4FFE8A6000C00FF8800
S123045D00FFDC18FF2418FF0C0000E8DCFF184E0000A6FF0078FF00780000A6FFE8600098
S123047DF44500F445FF24E8FF7800FF241800D018FF001EFF180CFF5400FF18F4FFE8F4CB
S123049DFFAC00FFE80C004500004500FF0094FFE8F4FFC4000000E2FF2A1E002A18FF3C3C
S12304BD2A00F4F4FF0030FFE8F4FF00D0002418FF00C400F4EEFF00D0FFE8DCFF002A0094
S12304DD243CFFC094FFC094FFC094000C00FF2418FFE81200ACF700ACF7FF0088FF24E88A
S12304FDFF7800FF2418FF007800FA2AFF4800FF180CFF006CFFE8F4FFF40000240CFFEECE
S123051D0C00CAE2FF2442FF002AFFDCE801000C88FF8800FFDCE8FF0088FF24E8FF7800C9
S123053DFF2418FF0078FFDC1800F400FF185AFF003CFFE85A000C00FF8800FFDCE8FF249B
S123055DE8FF0C0000E824FF18B200005AFF0088FF008800005AFFE8A000F4BB00F4BBFF0C
S123057D2418FF7800FF24E800D0E8FF00E2FF18F4FF5400FF180CFFE80CFFAC00FFE8F409
S123059D004500004500FF006CFFE80CFFC40000001EFF2AE2002AE8FF3CD600F40CFF0044
S12305BDD0FFE80CFF00300024E8FF003C00F412FF0030FFE824FF00D60024C4FFC06CFFBA
S12305DDC06CFFC06C000C00FF24E8FFE8EE00AC0900AC09FF0078FF2418FF7800FF24E819
S12305FDFF008800FAD6FF4800FF18F4FF0094FFE80CFFF4000024F4FFEEF400CA1EFF24B4
S10B061DBEFF00D6FFDC18014A
S1230625C601F7C88539C101270FC1FF270139F6C88527FA5AF7C88539F6C885C10227EEFE
S12306455CF7C88539327FBDF1BAF6C811E7E4C501272BF6C8852639C602E4E4270CF6C8CA
S12306658327045AF7C883326139C608E4E427F7F6C883C10627F05CF7C883326139C60454
S1230685E4E427D4F6C885C10227CD5CF7C88520C75AF7C88520C1AE0052C60AD7048E0451
S12306A5317EF410C610D7048E03A97EF410C60AD7048E052B7EF410069F06A906B3327E69
S12306C5BDF2A5BDF354C67FD704F6C8854F1F01C690E7E2E689069CBD07DDF6C8854FED97
S10F06E56158491F01AD9906BD3263390C
S12306F1CC0000FDC886397CC88726037CC886393420BDF2A5BDF354C67FD704C66EE7E2D5
S1230711CB2EBD07DDC609D70410BE01C530A4BDF4106FE2C67FBD07DD30A4BDF4106FE23A
S1230731C67FBD07DD30A4BDF4106FE2C67FBD07DD30A4BDF4106FE2C67FBD07DD30A4BD95
S1230751F410C664D704C6D6E7E2C681BD07DDC60FD7048E01D9BDF410C608D704BE01C924
S1230771BDF410C68AE7E2C618BD07DDBDF2C5C676E7E2C667BD07DD3268BE01CF35207EC9
S1230791F410BD0060BD0204BD027DBD0625BDF192BD006ABD0281BD02C5BD064ABD06C37E
S12307B1BD070120E9BD0793EC6226037EF0003410BD07E232621F0139EC6226037EF0005E
S12307D13410BD07E23590A6627EF3DFA6627EF312327D6F606C604D2B066C60584920F825
S12307F1ED61EC656F656F66A3612406E3611CFE20021A0169666965646166626A6026E8D1
S106081132633912
S9030000FC
