S12300006720474345203230323580FD0DF85028A6444F444745204348414C4C454E4745F7
S105002080005A
S1230021008E0000271BCE006033C9060E33C9000033C90000108EC880A6C0A7A0301F26AD
S1220041F88E0006270A108EC8806FA0301F26FABD06105D2706CC0000FDCBFE7EF0001E
S12300607FC880CC0000FDC88139F6C880C1F02206CB05F7C880397FC8807CC88226037CD9
S1060080C88139F7
S12300837FC88339FFE0F800E0F8FFE0F800E0F8FFC0F000C0F0FFC0F000C0F0FFA0E800B3
S12300A3A0E8FFA0E800A0E8FF80E00080E0FF80E00080E0FF80E0FFE0F801FFE00800E026
S12300C308FFE00800E008FFC01000C010FFC01000C010FFA01800A018FFA01800A018FF27
S11C00E38020008020FF8020008020FF8020FFE008015D51453A312A2250
S12300FC7FC884393420327CF6C8834F1F01E68900F54FEDE4108E00033420AE62BD0624BA
S123011C3262AFE4F6C8804FED621F104F3406AE64BD06241F104F10AFE41F01BD06131FD5
S123013C10F7C884326635A0327DBDF2A5BDF354C67FD704C624E7E2C6F1BD0637C6A8D70F
S123015C04C680E7E2CB2EBD0632BDF354C67FD704F6C884E7633262C1021027006EC6FB11
S123017CE061E7E4C609E06158583404E661BD06373261C610D7048E0087BDF410BDF354FC
S123019CC67FD704F6C884E762C1021027005DC609E06258583404E663CB05E763BD0637E7
S12301BC3261C610D7048E00BEBDF410BDF354C67FD704C624E7E2C60FBD0637C6A8D704DF
S12301DCC680E7E2C652BD0632326539C624E7E2C6FBBD0637C6FCE7E2CB03BD0632C6FC95
S12301FCE7E2CB03BD0637326316FF87C624E7E2C605BD0637C6FCE7E2C601BD0632C6FC9C
S123021CE7E2C601BD0637326316FF9600A0B0FF00B0FF7F00FF0050FF8000001000FF108A
S123023C3C000028FFF03C00F000FF0050FF7F00FF00B0FF8000002000FF00B0FF00B000A6
S123025C4000FF103CFF0028FFF03CFF70C0FF00E000E430FF0030FF10F8FF00D00000D0AA
S123027CFF00D0FFF0F8FF0030001C10FF90C00020D8FF2800FF003CFFDC00000078FF242E
S123029C00FF003CFFD80000149CFF10F8FF00E8FFF0F8010002ECFFEC00FFFAFCFF00ECED
S12302BCFF06FCFF1400FF0604FF0014FFFA0400FE00FF040FFF000AFFFC0F000200FFECE1
S12302DC00FFFAFCFF06FCFF020000FC06FF04F300000FFF00D800000FFFFCF000FCE9FF4B
S12302FC0604FF1400FF06FC00F8FCFF00FBFF04FEFF0E00FF0402FFFC02FFF200FFFCFED8
S123031C001600FF0012FFFC02FFF600000005FF07FB0007FCFF0AF900FE02FF00F8FFFCA7
S123033C02FF00080006FCFF000A00FE03FF0008FFFC06FF00F90006F6FFE036000200FF76
S123035C06FCFFFCFD00E403FF0014FF0604FF1400FF06FCFF00EC00FFF9FF0C00FF04FE7D
S11F037CFF00EEFFFC02FFFE000006FEFFFDFE00F705FF06F5FF00F9FFFA040190
S1230398C601F7C88539C101270FC1FF270139F6C88527FA5AF7C88539F6C885C10227EE8E
S12303B85CF7C88539327FBDF1BAF6C811E7E4C501272BF6C8852639C602E4E4270CF6C85A
S12303D88327045AF7C883326139C608E4E427F7F6C883C10627F05CF7C883326139C604E4
S12303F8E4E427D4F6C885C10227CD5CF7C88520C75AF7C88520C1B900478E02B07EF4105C
S12304188E02287EF4108E02B07EF41004120418041E327EBDF2A5BDF354C67FD704F6C88A
S1230438854F1F01C690E7E2E689040FBD0637C610D704F6C8854FED6158491F01AD990475
S1230458243263393900A0B0FF00B0FF7F00FF0050FF8000001000FF103C000028FFF03C5C
S123047800F000FF0050FF7F00FF00B0FF8000002000FF00B0FF00B0004000FF103CFF006D
S123049828FFF03CFF70C0FF00E000E430FF0030FF10F8FF00D00000D0FF00D0FFF0F8FF41
S12304B80030001C10FF90C00020D8FF2800FF003CFFDC00000078FF2400FF003CFFD80093
S12304D800149CFF10F8FF00E8FFF0F8010002ECFFEC00FFFAFCFF00ECFF06FCFF1400FFAE
S12304F80604FF0014FFFA0400FE00FF040FFF000AFFFC0F000200FFEC00FFFAFCFF06FCC0
S1230518FF020000FC06FF04F300000FFF00D800000FFFFCF000FCE9FF0604FF1400FF06E0
S1230538FC00F8FCFF00FBFF04FEFF0E00FF0402FFFC02FFF200FFFCFE001600FF0012FF95
S1230558FC02FFF600000005FF07FB0007FCFF0AF900FE02FF00F8FFFC02FF00080006FC84
S1230578FF000A00FE03FF0008FFFC06FF00F90006F6FFE036000200FF06FCFFFCFD00E465
S123059803FF0014FF0604FF1400FF06FCFF00EC00FFF9FF0C00FF04FEFF00EEFFFC02FF34
S12305B8FE000006FEFFFDFE00F705FF06F5FF00F9FFFA0401BD0060BD0398BDF192BD00C5
S12305D86ABDF2A5C67FD704C640E7E25FBD0637C610D7048E045DBDF410BDF354C67FD778
S12305F804C6C0E7E2C620BD0637C6FFD7048E04E5BDF410326220C3BD05CDEC6226037ED9
S1230618F0003410BD063C32621F0139EC6226037EF0003410BD063C3590A6627EF3DFA6B3
S1230638627EF312327D6F606C604D2B066C60584920F8ED61EC656F656F66A3612406E313
S1190658611CFE20021A0169666965646166626A6026E832633900
S9030000FC
