S12300006720474345203230323580FD0DF85028A6444F444745204348414C4C454E4745F7
S105002080005A
S1230021008E0000271BCE006033C9095733C9000033C90000108EC880A6C0A7A0301F2661
S1220041F88E0026270A108EC8806FA0301F26FABD09595D2706CC0000FDCBFE7EF000B2
S12300607FC880CC0000FDC88139F6C880C1F02211C150271BC1A52717F6C880CB05F7C884
S11F008080397FC8807CC88226037CC8817E076EBD076EF6C880CB05F7C8803981
S123009C34408EC8856F846F1F6F1ECE00E4EF0130058CC89E26EE8EC883BFC89C35C034E1
S12300BC403404BEC89CC6FFEE03118300E42704326135C0CE00E5EF036F02C61EE701E6DD
S12300DCE4E7845F326135C03939007EC9FF006E00F808FF920000F000FF920000F8F8FFA3
S12300FC00920008F8FF6E00001000FF6E00008A7F0100763FFF920000F000FF920000761D
S123011CFF01007EC9FF006E00F808FF920000F8F8FF009200F8F8FF920000F808FF006E0B
S123013C007E0901007EC9FF006E00F808FF920000F000FF920000F8F8FF0092007E00FF53
S123015C006E000009010076C1FF920000F808FF006E007608FF920000F000FF92000076CC
S123017C0101007E37FF009200F8F8FF920000F808FF006E00F808FF920000F8F8FF009217
S123019C007E77010076C1FF920000F000FF920000F808FF006E000808FF6E000008F8FF17
S12301BC009200007701007EC9FF006E00F808FF920000F000FF920000760101007EC9FF91
S12301DC006E00F808FF920000F000FF920000F8F8FF00920008F8FF6E00001000FF6E0014
S12301FC008A08FF006E00000901008A3FFF6E00001000FF6E000008F8FF009200F8F8FFA3
S123021C920000F808FF006E0000090100E6010E011E01400162017E01A001C201D8020639
S123023CFFC070FFC09000007FFF4070FF409000007FFFC070FFC09000007F00007FFF7FAA
S111025C7F000081FF817F00607F0000390178
S123026A7FC89E39FFE0F800E0F8FFE0F800E0F8FFC0F000C0F0FFC0F000C0F0FFA0E800AF
S123028AA0E8FFA0E800A0E8FF80E00080E0FF80E00080E0FF80E0FFE0F801FFE00800E03D
S12302AA08FFE00800E008FFC01000C010FFC01000C010FFA01800A018FFA01800A018FF3E
S11C02CA8020008020FF8020008020FF8020FFE008015D51453A312A2267
S12302E37FC89F393420327CF6C89E4F1F01E68902DC4FEDE4108E00033420AE62BD096D66
S12303033262AFE4F6C8804FED621F104F3406AE64BD096D1F104F10AFE41F01BD095C1F54
S123032310F7C89F326635A0327DBDF2A5BDF354C67FD704C624E7E2C6F1BD0980C6A8D7BF
S123034304C680E7E2CB2EBD097BBDF354C67FD704F6C89FE7633262C1021027006EC6FBC1
S1230363E061E7E4C609E06158583404E661BD09803261C610D7048E026EBDF410BDF354DE
S1230383C67FD704F6C89FE762C1021027005DC609E06258583404E663CB05E763BD098097
S12303A33261C610D7048E02A5BDF410BDF354C67FD704C624E7E2C60FBD0980C6A8D704C1
S12303C3C680E7E2C652BD097B326539C624E7E2C6FBBD0980C6FCE7E2CB03BD097BC6FCC8
S12303E3E7E2CB03BD0980326316FF87C624E7E2C605BD0980C6FCE7E2C601BD097BC6FCCF
S1230403E7E2C601BD0980326316FF9600A0B0FF00B0FF7F00FF0050FF8000001000FF1055
S12304233C000028FFF03C00F000FF0050FF7F00FF00B0FF8000002000FF00B0FF00B000BD
S12304434000FF103CFF0028FFF03CFF70C0FF00E000E430FF0030FF10F8FF00D00000D0C1
S1230463FF00D0FFF0F8FF0030001C10FF90C00020D8FF2800FF003CFFDC00000078FF2445
S123048300FF003CFFD80000149CFF10F8FF00E8FFF0F801000C78FF8800FFDC18FF007848
S12304A3FF2418FF7800FF24E8FF0088FFDCE800F400FF18A6FF00C4FFE8A6000C00FF889A
S12304C300FFDC18FF2418FF0C0000E8DCFF184E0000A6FF0078FF00780000A6FFE8600032
S12304E3F44500F445FF24E8FF7800FF241800D018FF001EFF180CFF5400FF18F4FFE8F465
S1230503FFAC00FFE80C004500004500FF0094FFE8F4FFC4000000E2FF2A1E002A18FF3CD5
S12305232A00F4F4FF0030FFE8F4FF00D0002418FF00C400F4EEFF00D0FFE8DCFF002A002D
S1230543243CFFC094FFC094FFC094000C00FF2418FFE81200ACF700ACF7FF0088FF24E823
S1230563FF7800FF2418FF007800FA2AFF4800FF180CFF006CFFE8F4FFF40000240CFFEE67
S12305830C00CAE2FF2442FF002AFFDCE801000C88FF8800FFDCE8FF0088FF24E8FF780063
S12305A3FF2418FF0078FFDC1800F400FF185AFF003CFFE85A000C00FF8800FFDCE8FF2435
S12305C3E8FF0C0000E824FF18B200005AFF0088FF008800005AFFE8A000F4BB00F4BBFFA6
S12305E32418FF7800FF24E800D0E8FF00E2FF18F4FF5400FF180CFFE80CFFAC00FFE8F4A3
S1230603004500004500FF006CFFE80CFFC40000001EFF2AE2002AE8FF3CD600F40CFF00DD
S1230623D0FFE80CFF00300024E8FF003C00F412FF0030FFE824FF00D60024C4FFC06CFF53
S1230643C06CFFC06C000C00FF24E8FFE8EE00AC0900AC09FF0078FF2418FF7800FF24E8B2
S1230663FF008800FAD6FF4800FF18F4FF0094FFE80CFFF4000024F4FFEEF400CA1EFF244D
S10B0683BEFF00D6FFDC1801E4
S123068BC601F7C8A039C101270FC1FF270139F6C8A027FA5AF7C8A039F6C8A0C10227EE2C
S12306AB5CF7C8A039327FBDF1BAF6C811E7E4C501272BF6C8A02639C602E4E4270CF6C82E
S12306CB9E27045AF7C89E326139C608E4E427F7F6C89EC10627F05CF7C89E326139C60482
S12306EBE4E427D4F6C8A0C10227CD5CF7C8A020C75AF7C8A020C1AE0052C60AD7048E049A
S123070B977EF410C610D7048E040F7EF410C60AD7048E05917EF4100705070F0719327E9A
S123072BBDF2A5BDF354C67FD704F6C8A04F1F01C690E7E2E6890702BD0980F6C8A04FEDEE
S10F074B6158491F01AD9907233263393E
S12307577FC8A17FC8A27FC8A37FC8A47FC8A539010203040506073276F6C89E4F1F01E63E
S1230777890767FBC8A1E766C109102F00C0E66686673DEDE41F894F5757E765E6665959B7
S1230797C40150E762E665E062E762FBC8A2E767E662860A3D1F011F10E06650F7C8A1E617
S12307B767C109102F0081E66786673DEDE41F894F5757E764E6675959C40150E7E4E664CC
S12307D7E0E4E7E4FBC8A3E768E6E4860A3D1F011F10E06750F7C8A2E668C1092F56E668F1
S12307F786673DEDE41F894F5757E7E4E6685959C40150E769E6E4E069FBC8A4E769866757
S12308173DEDE41F894F5757E763E6695959C40150E06350860A3DE06950F7C8A3E669C13F
S1230837092E08F7C8A42003F7C8A2326A39F7C8A1326A39F7C8A3326A390101020203032A
S12308570400050005000500327EBDF2A5BDF354C67FD704C66EE7E2CB2EBD0980C609D760
S123087704F6C8A41D58491F01AE890228BDF4106FE2C67FBD0980F6C8A31D58491F01AE2E
S1230897890228BDF4106FE2C67FBD0980F6C8A21D58491F01AE890228BDF4106FE2C67FF7
S12308B7BD0980F6C8A11D58491F01AE890228BDF4106FE2C67FBD0980BE0228BDF410C62D
S12308D742D704C6D4E7E2C681BD0980C606D7048E023CBDF410C606D704F6C89E4F1F014A
S12308F7E68908511D58491F01AE890228BDF410C68AE7E2C62ABD0980BDF2C5C676E7E24D
S1230917C667BD0980F6C89E4F1F01E68908581DED6858491F01AE890228326A7EF410BD40
S12309370060BD026ABD02E3BD068BBDF192BD006ABD02E7BD032BBD06B0BD0729BD085FA7
S123095720E9BD0936EC6226037EF0003410BD098532621F0139EC6226037EF0003410BD30
S123097709853590A6627EF3DFA6627EF312327D6F606C604D2B066C60584920F8ED61EC9F
S1230997656F656F66A3612406E3611CFE20021A0169666965646166626A6026E832633995
S9030000FC
