S12300006720474345203230323580FD0DF85028A6444F444745204348414C4C454E4745F7
S105002080005A
S1230021008E0001271BCE006133C9029C33C9000033C90000108EC880A6C0A7A0301F2621
S1230041F88E0000270A108EC8816FA0301F26FABD01245D27068E0000BFCBFEBDF0003917
S1230061327FE7E4E6E4C1012610F6C880C102271CF6C8805CF7C8802013E6E4C1FF260D30
S1230081F6C8805D2707F6C8805AF7C880326139BDF2A5BDF354C67FD704C624E7E2C6807E
S12300A1BD02ED3261C6FFD7048E025DBDF410BDF354C67FD704C624E7E2C6F1BD02ED3242
S12300C161C6FFD7048E0261BDF410BDF354C67FD704C624E7E2C6FBBD02ED3261C6FFD7F5
S12300E1048E0265BDF410BDF354C67FD704C624E7E2C605BD02ED3261C6FFD7048E0269C7
S1230101BDF410BDF354C67FD704C624E7E2C60FBD02ED3261C6FFD7048E026DBDF4103997
S1230121B90047327FBDF192BD0091BDF1BAF6C811C4015D2707C6FFBD0061200DF6C81115
S1230141C4045D2705C601BD0061F6C8803404C6B0E7E2C678BD02913262BDF2A5BDF35435
S1230161C67FD704F6C8804F1F01E6890121E7E4C690E7E2E661BD02ED3261C640D7048E3D
S123018101D8BDF41016FF9D0030F0FF0020FFE000FF00E0FF200000E010FFE0000010E033
S12301A1FF004000D0F0FF20F0FFE0F0010000001900FF3200FF00F6FF0A0AFF0AECFF1EF8
S12301C100FF0A0AFF0014FFF60AFFE200FFF6ECFFF60AFF00F60100E8ECFF00ECFF200060
S12301E1FF0014FFE000000400FF040F00000AFFFC0F00FC00FF0014FF2000FF00ECFFE0E6
S123020100000800FF00D8001000FF040FFF000AFFFC0FFF1CF0FF00F800F90CFF000CFFB4
S123022104FEFF00F40000F4FF00F4FFFCFEFF000C000704FFE4F00008F6FF0A00FF000FE6
S1230241FFF70000001EFF0900FF000FFFF6000005E7FF04FEFF00FAFFFCFE01FF007F011B
S1230261FFB0CB01FFA6EC01FFA61401FFB03501BDF192BDF2A5BDF354C67FD7046FE25F65
S1230281BD02ED3261C6FFD7048E01D8BDF410393279E7E4C680E764C630E762C630E76195
S12302A1200BE6615CE761E66ACB9CE76AE66AC16322EF200BE6625CE762E66ACBF6E76A1C
S12302C1E66AC10922EFE66ACB30E763C6CCD70CC67FD704E6E4E766E669E7653061E66635
S11F02E1E7E2E666BD02F23261326739A6627EF3123440A6643384BDF37A35C0F3
S9030000FC
