S12300006720474345203230323580FD0DF85028A6444F444745204348414C4C454E4745F7
S105002080005A
S1230021008E0000271BCE006033C90F1333C9000033C90000108EC880A6C0A7A0301F269F
S1220041F88E0031270A108EC8806FA0301F26FABD0F545D2706CC0000FDCBFE7EF000A6
S1110060398E0060BFC8827FC8817FC8803996
S123006ECC0000FDC885C631F7C88439F6C88427055AF7C88439C631F7C884FCC885C3005B
S108008E01FDC88539E5
S123009334408EC8896F846F1F6F1ECE00DBEF0130058CC8A226EE8EC887BFC8A035C034E3
S12300B3403404BEC8A0C6FFEE03118300DB2704326135C0CE00DCEF036F02C61EE701E6F4
S10D00D3E4E7845F326135C0393977
S12300DDCC0000FDC8A27FC8A4BD006EBD03A7BD0810BD0061BD00938E00FCBFC8A5398E8F
S12300FD0103BFC8A5398E010ABFC8A539327FBDF192BDF1BAF6C811E7E4C5012633C60898
S123011DE4E427037AC8A4C606E4E4C1062714C602E4E42622C604E4E42708BEC8AF8C08EE
S123013D282747BD007AAD9FC8A8AD9FC8AF3261397CC8A4326139BEC8AF8C082826E4F6E1
S123015DC8AAC101274AC10226D98E0C81BFC8AFF6C8A44F1F01E68907D9F7C8AE8E0F4656
S123017DBFC8ACC603F7C8AA20B9F6C8AA26428E0AA7BFC8AFF6C8A44F1F01E68907D9F7C4
S123019DC8AE8E0F38BFC8ACC603F7C8AA16FF938E0D6DBFC8AFF6C8A44F1F01E68907D988
S12301BDF7C8AE8E0F4DBFC8ACC603F7C8AA16FF72C1011026FF6C8E0B93BFC8AFF6C8A4B4
S12301DD4F1F01E68907D9F7C8AE8E0F3FBFC8ACC603F7C8AA16FF4B3939007EC9FF006E0C
S12301FD00F808FF920000F000FF920000F8F8FF00920008F8FF6E00001000FF6E00008AD7
S123021D7F0100763FFF920000F000FF92000076FF01007EC9FF006E00F808FF920000F8C3
S123023DF8FF009200F8F8FF920000F808FF006E007E0901007EC9FF006E00F808FF920059
S123025D00F000FF920000F8F8FF0092007E00FF006E000009010076C1FF920000F808FFBF
S123027D006E007608FF920000F000FF920000760101007E37FF009200F8F8FF920000F828
S123029D08FF006E00F808FF920000F8F8FF0092007E77010076C1FF920000F000FF920077
S12302BD00F808FF006E000808FF6E000008F8FF009200007701007EC9FF006E00F808FF77
S12302DD920000F000FF920000760101007EC9FF006E00F808FF920000F000FF920000F8B4
S12302FDF8FF00920008F8FF6E00001000FF6E00008A08FF006E00000901008A3FFF6E002B
S123031D001000FF6E000008F8FF009200F8F8FF920000F808FF006E0000090101F7021F9D
S123033D022F02510273028F02B102D302E90317FFC070FFC09000007FFF4070FF4090000A
S121035D007FFFC070FFC09000007F00007FFF7F7F000081FF817F00607F00003901ED
S123037B06050404030202020101000605040302020201010000060504030302010201010A
S123039B000605040302020201010000F6C8A44F1F01E689037B8E0591BFC8A8F7C8A73974
S12303BBFFF0FC00E4F9FFD8F600CCF3FFC0F000B4EDFFA8EA009CE7FF90E40084E1FFBCD3
S12303DBEFFFBCEF00B6ED00B6EEFFB0ECFFB0EC00AAEA00AAEBFF84E10100F8FEFFECFB7E
S12303FB00DCF7FFD4F500C4F1FFBCEF00ACEBFFA4E90094E5FF8CE30084E100F8FEFFB8C8
S123041BEEFFBCEF00AEEB00B6EEFFACEBFFB0EC00A2E800AAEBFF84E10100F0FCFFE4F96B
S123043B00D8F6FFCCF300C0F0FFB4ED00A8EAFF9CE70090E4FF84E10084E100F4FDFFB0D0
S123045BECFFBCEF00AAEA00B6EEFFA4E9FFB0EC01FFF8FE00F0FCFFE0F800D0F4FFC8F252
S123047B00B8EEFFB0EC00A0E8FF98E60088E2FF81E00084E100ECFBFFACEBFFBCEF00A21F
S123049BE800B6EEFFA0E8FFB0EC01FFF00400E407FFD80A00CC0DFFC01000B413FFA816A3
S12304BB009C19FF901C00841FFFBC11FFBC1100B61300B612FFB014FFB01400AA1600AA01
S12304DB15FF841F0100F802FFEC0500DC09FFD40B00C40FFFBC1100AC15FFA41700941BCF
S12304FBFF8C1D00841F00F802FFB812FFBC1100AE1500B612FFAC15FFB01400A21800AA91
S123051B15FF841F0100F004FFE40700D80AFFCC0D00C010FFB41300A816FF9C1900901CB8
S123053BFF841F00841F00F403FFB014FFBC1100AA1600B612FFA417FFB01401FFF80200D2
S123055BF004FFE00800D00CFFC80E00B812FFB01400A018FF981A00881EFF812000841F11
S123057B00EC05FFAC15FFBC1100A21800B612FFA018FFB01401BDF2A5BDF354C67FD7046A
S123059BC624E7E2C6F1BD0F6EC6A8D704C680E7E2CB2EBD0F69BDF354C67FD704C624E71D
S12305BBE2C6FBBD0F6EC610D7048E03BBBDF410BDF354C67FD704C624E7E2C605BD0F6EA5
S12305DBC610D7048E04A6BDF410BDF354C67FD704C624E7E2C60FBD0F6EC6A8D704C680DD
S12305FBE7E2C652BD0F69F6C8A732665D27055AF7C8A7398E0623BFC8A8F6C8A44F1F0190
S123061BE6890386F7C8A739BDF2A5BDF354C67FD704C624E7E2C6F1BD0F6EC6A8D704C6F9
S123063B80E7E2CB2EBD0F69BDF354C67FD704C624E7E2C6FBBD0F6EC610D7048E03F5BD5E
S123065BF410BDF354C67FD704C624E7E2C605BD0F6EC610D7048E04E0BDF410BDF354C6ED
S123067B7FD704C624E7E2C60FBD0F6EC6A8D704C680E7E2C652BD0F69F6C8A732665D2719
S123069B055AF7C8A7398E06B5BFC8A8F6C8A44F1F01E6890391F7C8A739BDF2A5BDF354FA
S12306BBC67FD704C624E7E2C6F1BD0F6EC6A8D704C680E7E2CB2EBD0F69BDF354C67FD7B1
S12306DB04C624E7E2C6FBBD0F6EC610D7048E0435BDF410BDF354C67FD704C624E7E2C673
S12306FB05BD0F6EC610D7048E0520BDF410BDF354C67FD704C624E7E2C60FBD0F6EC6A823
S123071BD704C680E7E2C652BD0F69F6C8A732665D27055AF7C8A7398E0747BFC8A8F6C83B
S123073BA44F1F01E689039CF7C8A739BDF2A5BDF354C67FD704C624E7E2C6F1BD0F6EC6F8
S123075BA8D704C680E7E2CB2EBD0F69BDF354C67FD704C624E7E2C6FBBD0F6EC610D70437
S123077B8E046CBDF410BDF354C67FD704C624E7E2C605BD0F6EC610D7048E0557BDF41063
S123079BBDF354C67FD704C624E7E2C60FBD0F6EC6A8D704C680E7E2C652BD0F69F6C8A74A
S12107BB32665D27055AF7C8A7398E0591BFC8A8F6C8A44F1F01E689037BF7C8A73952
S12307D907070707070707070707070606060606060606060606AE00520E910E590EE4FA7B
S12307F9F4EEE9E3DD4C46403B352F060C12171D23B4BAC0C5CBD18E0828BFC8AF7FC8AEED
S1230819CC0000FDC8AC7FC8ABC601F7C8AA39327EBDF2A5F6C8AA4FEDE458491F01AD9990
S123083907F232623900A0B0FF00B0FF7F00FF0050FF8000001000FF103C000028FFF03CDC
S123085900F000FF0050FF7F00FF00B0FF8000002000FF00B0FF00B0004000FF103CFF0088
S123087928FFF03C01002088FF2800FF003CFFDC0000E0ECFF7040FF0020FF904000202871
S1230899FF2800FF00C4FFDC00002DE4FF0030FF10F8FF00D00000D0FF00D0FFF0F8FF00DB
S12308B93000E40CFF1008FF0018FFF00801000850FFB000FFE810FF0050FF1810FF500012
S12308D9FF18F0FF00B0FFE8F000F800FF10C4FF00D8FFF0C4000800FFB000FFE810FF1854
S12308F910FF080000F0E8FF10340000C4FF0050FF00500000C4FFF0400100D05800D05803
S1230919FF18F0FF5000FF181000E010FF0014FF1008FF3800FF10F8FFF0F8FFC800FFF048
S123093908005800FF00B8FFF0F8FFD8000000ECFF1C14001C10FF281CFF00D8FFC094FF12
S1230959C094003458003458FF00E4FF1018FF002000002EFF0020FFF0F8FF00E0010008C9
S1230979B0FF1810FFF00C0090F4FF00B0FF18F0FF5000FF1810FF005000FC1CFF3000FF43
S12309991008FF0048FFF0F8FFF800001808FFF40800DCECFF182CFF001CFFE8F0010008DC
S12309B9B0FFB000FFE8F0FF00B0FF18F0FF5000FF1810FF0050FFE81000F800FF103CFF30
S12309D90028FFF03C000800FFB000FFE8F0FF18F0FF080000F018FF10CC00003CFF00B03D
S12309F9FF00B000003CFFF0C00100D0A800D0A8FF1810FF5000FF18F000E0F0FF00ECFF18
S1230A1910F8FF3800FF1008FFF008FFC800FFF0F8005800FF0048FFF008FFD8000000143D
S1230A39FF1CEC001CF0FF28E4FF0028FFC06CFFC06C0034A80034A8FF001CFF10E8FF0035
S1230A59E00000D2FF00E0FFF008FF002001000850FF18F0FFF0F400900CFF0050FF18107D
S1230A79FF5000FF18F0FF00B000FCE4FF3000FF10F8FF00B8FFF008FFF8000018F8FFF496
S1230A99F800DC14FF18D4FF00E4FFE8100134407AC8AEF6C8AE4FFEC8AC30CBE684F7C8D6
S1230AB9ABBDF2A5BDF354C67FD704CB11E7E2F6C8ABBD0F6EC610D7048E08C7BDF410BD22
S1230AD9F354C67FD704CB11E7E2F6C8ABBD0F6EC610D7048E0913BDF410BDF354C67FD70E
S1230AF904CB11E7E2F6C8ABBD0F6EC610D7048E0977BDF41032637DC8AE26198E0B30BFBE
S1230B19C8AFF6C8A44F1F01E68907E4F7C8AE8E07F8BFC8AC35C034407AC8AEF6C8AE4FD5
S1230B39FEC8AC30CBE684F7C8ABBDF2A5BDF354C67FD704CB11E7E2F6C8ABBD0F6EC610C1
S1230B59D7048E083EBDF410BDF354C67FD704CB11E7E2F6C8ABBD0F6EC610D7048E087ED7
S1230B79BDF41032627DC8AE260EC601F7C8AA7FC8AB8E0828BFC8AF35C034407AC8AEF677
S1230B99C8AE4FFEC8AC30CBE684F7C8ABBDF2A5BDF354C67FD704CB11E7E2F6C8ABBD0FE0
S1230BB96EC610D7048E083EBDF410BDF354C67FD704CB11E7E2F6C8ABBD0F6EC610D70447
S1230BD98E087EBDF41032627DC8AE26198E0C01BFC8AFF6C8A44F1F01E68907E4F7C8AEF4
S1230BF98E07FEBFC8AC35C034407AC8AEF6C8AE4FFEC8AC30CBE684F7C8ABBDF2A5BDF3B9
S1230C1954C67FD704CB11E7E2F6C8ABBD0F6EC610D7048E09B7BDF410BDF354C67FD70417
S1230C39CB11E7E2F6C8ABBD0F6EC610D7048E0A03BDF410BDF354C67FD704CB11E7E2F683
S1230C59C8ABBD0F6EC610D7048E0A67BDF41032637DC8AE2610C602F7C8AAC652F7C8ABE8
S1230C798E0828BFC8AF35C034407AC8AEF6C8AE4FFEC8AC30CBE684F7C8ABBDF2A5BDF30A
S1230C9954C67FD704CB11E7E2F6C8ABBD0F6EC610D7048E09B7BDF410BDF354C67FD70497
S1230CB9CB11E7E2F6C8ABBD0F6EC610D7048E0A03BDF410BDF354C67FD704CB11E7E2F603
S1230CD9C8ABBD0F6EC610D7048E0A67BDF41032637DC8AE26198E0D0ABFC8AFF6C8A44F86
S1230CF91F01E68907E4F7C8AE8E0804BFC8AC35C034407AC8AEF6C8AE4FFEC8AC30CBE6BC
S1230D1984F7C8ABBDF2A5BDF354C67FD704CB11E7E2F6C8ABBD0F6EC610D7048E083EBDC6
S1230D39F410BDF354C67FD704CB11E7E2F6C8ABBD0F6EC610D7048E087EBDF41032627D8F
S1230D59C8AE260EC601F7C8AA7FC8AB8E0828BFC8AF35C034407AC8AEF6C8AE4FFEC8AC30
S1230D7930CBE684F7C8ABBDF2A5BDF354C67FD704CB11E7E2F6C8ABBD0F6EC610D7048E88
S1230D99083EBDF410BDF354C67FD704CB11E7E2F6C8ABBD0F6EC610D7048E087EBDF4103D
S1230DB932627DC8AE26198E0DDBBFC8AFF6C8A44F1F01E68907E4F7C8AE8E080ABFC8AC39
S1230DD935C034407AC8AEF6C8AE4FFEC8AC30CBE684F7C8ABBDF2A5BDF354C67FD704CB5E
S1230DF911E7E2F6C8ABBD0F6EC610D7048E08C7BDF410BDF354C67FD704CB11E7E2F6C803
S1230E19ABBD0F6EC610D7048E0913BDF410BDF354C67FD704CB11E7E2F6C8ABBD0F6EC682
S1230E3910D7048E0977BDF41032637DC8AE260E7FC8AAC6AEF7C8AB8E0828BFC8AF35C067
S1230E59BDF354C67FD704CB11E7E2F6C8ABBD0F6EC610D7048E083EBDF410BDF354C67F7A
S1230E79D704CB11E7E2F6C8ABBD0F6EC610D70432628E087E7EF410BDF354C67FD704CB68
S1230E9911E7E2F6C8ABBD0F6EC610D7048E08C7BDF410BDF354C67FD704CB11E7E2F6C862
S1230EB9ABBD0F6EC610D7048E0913BDF410BDF354C67FD704CB11E7E2F6C8ABBD0F6EC6E2
S1230ED910D70432638E09777EF410BDF354C67FD704CB11E7E2F6C8ABBD0F6EC610D704C8
S1230EF98E09B7BDF410BDF354C67FD704CB11E7E2F6C8ABBD0F6EC610D7048E0A03BDF45D
S1230F1910BDF354C67FD704CB11E7E2F6C8ABBD0F6EC610D70432638E0A677EF41039D761
S1230F39D1CBC5C0BAB429231D17120C06292F353B40464CD7DDE3E9EEF4FA7FC8A4CC00B4
S11D0F5900FDC8A28E00DDBFC8A5AD9FC8A520FAA6627EF3DFA6627EF312C6
S9030000FC
