S12300006720474345203230323580FD0DF85028A6444F444745204348414C4C454E4745F7
S105002080005A
S1230021008E0000271BCE006033C9058F33C9000033C90000108EC880A6C0A7A0301F262D
S1220041F88E0006270A108EC8806FA0301F26FABD05915D2706CC0000FDCBFE7EF0009E
S12300607FC880CC0000FDC88139F6C880C1F02206CB05F7C880397FC8807CC88226037CD9
S1060080C88139F7
S12300837FC88339FFE0F800E0F8FFE0F800E0F8FFC0F000C0F0FFC0F000C0F0FFA0E800B3
S12300A3A0E8FFA0E800A0E8FF80E00080E0FF80E00080E0FF80E0FFE0F801FFE00800E026
S12300C308FFE00800E008FFC01000C010FFC01000C010FFA01800A018FFA01800A018FF27
S11C00E38020008020FF8020008020FF8020FFE008015D51453A312A2250
S12300FC7FC884393420327CF6C8834F1F01E68900F54FEDE4108E00033420AE62BD05A53A
S123011C3262AFE4F6C8804FED621F104F3406AE64BD05A51F104F10AFE41F01BD05941FD5
S123013C10F7C884326635A0327DBDF2A5BDF354C67FD704C624E7E2C6F1BD05B8C6A8D78F
S123015C04C680E7E2CB2EBD05B3BDF354C67FD704F6C884E7633262C1021027006EC6FB91
S123017CE061E7E4C609E06158583404E661BD05B83261C610D7048E0087BDF410BDF3547C
S123019CC67FD704F6C884E762C1021027005DC609E06258583404E663CB05E763BD05B867
S12301BC3261C610D7048E00BEBDF410BDF354C67FD704C624E7E2C60FBD05B8C6A8D7045F
S12301DCC680E7E2C652BD05B3326539C624E7E2C6FBBD05B8C6FCE7E2CB03BD05B3C6FC15
S12301FCE7E2CB03BD05B8326316FF87C624E7E2C605BD05B8C6FCE7E2C601BD05B3C6FC1C
S123021CE7E2C601BD05B8326316FF9600A0B0FF00B0FF7F00FF0050FF8000001000FF100A
S123023C3C000028FFF03C00F000FF0050FF7F00FF00B0FF8000002000FF00B0FF00B000A6
S123025C4000FF103CFF0028FFF03CFF70C0FF00E000E430FF0030FF10F8FF00D00000D0AA
S123027CFF00D0FFF0F8FF0030001C10FF90C00020D8FF2800FF003CFFDC00000078FF242E
S123029C00FF003CFFD80000149CFF10F8FF00E8FFF0F801000C78FF8800FFDC18FF007831
S12302BCFF2418FF7800FF24E8FF0088FFDCE800F400FF18A6FF00C4FFE8A6000C00FF8883
S12302DC00FFDC18FF2418FF0C0000E8DCFF184E0000A6FF0078FF00780000A6FFE860001B
S12302FCF44500F445FF24E8FF7800FF241800D018FF001EFF180CFF5400FF18F4FFE8F44E
S123031CFFAC00FFE80C004500004500FF0094FFE8F4FFC4000000E2FF2A1E002A18FF3CBE
S123033C2A00F4F4FF0030FFE8F4FF00D0002418FF00C400F4EEFF00D0FFE8DCFF002A0016
S123035C243CFFC094FFC094FFC094000C00FF2418FFE81200ACF700ACF7FF0088FF24E80C
S123037CFF7800FF2418FF007800FA2AFF4800FF180CFF006CFFE8F4FFF40000240CFFEE50
S123039C0C00CAE2FF2442FF002AFFDCE801000C88FF8800FFDCE8FF0088FF24E8FF78004C
S12303BCFF2418FF0078FFDC1800F400FF185AFF003CFFE85A000C00FF8800FFDCE8FF241E
S12303DCE8FF0C0000E824FF18B200005AFF0088FF008800005AFFE8A000F4BB00F4BBFF8F
S12303FC2418FF7800FF24E800D0E8FF00E2FF18F4FF5400FF180CFFE80CFFAC00FFE8F48C
S123041C004500004500FF006CFFE80CFFC40000001EFF2AE2002AE8FF3CD600F40CFF00C6
S123043CD0FFE80CFF00300024E8FF003C00F412FF0030FFE824FF00D60024C4FFC06CFF3C
S123045CC06CFFC06C000C00FF24E8FFE8EE00AC0900AC09FF0078FF2418FF7800FF24E89B
S123047CFF008800FAD6FF4800FF18F4FF0094FFE80CFFF4000024F4FFEEF400CA1EFF2436
S10B049CBEFF00D6FFDC1801CD
S12304A4C601F7C88539C101270FC1FF270139F6C88527FA5AF7C88539F6C885C10227EE81
S12304C45CF7C88539327FBDF1BAF6C811E7E4C501272BF6C8852639C602E4E4270CF6C84D
S12304E48327045AF7C883326139C608E4E427F7F6C883C10627F05CF7C883326139C604D7
S1230504E4E427D4F6C885C10227CD5CF7C88520C75AF7C88520C1AE0052C60AD7048E02D5
S1230524B07EF410C610D7048E02287EF410C60AD7048E03AA7EF410051E05280532327EF7
S1230544BDF2A5BDF354C67FD704F6C8854F1F01C690E7E2E689051BBD05B8F6C8854FEDC2
S12305646158491F01AD99053C32633939BD0060BD0083BD00FCBD04A4BDF192BD006ABD24
S12305840100BD0144BD04C9BD054220ECBD0571EC6226037EF0003410BD05BD32621F0127
S12305A439EC6226037EF0003410BD05BD3590A6627EF3DFA6627EF312327D6F606C604D13
S12305C42B066C60584920F8ED61EC656F656F66A3612406E3611CFE20021A0169666965AF
S10E05E4646166626A6026E8326339D5
S9030000FC
