S12300006720474345203230323580FD0DF85028A6444F444745204348414C4C454E4745F7
S105002080005A
S1230021008E0001271BCE006133C901F533C9000033C90000108EC880A6C0A7A0301F26C9
S1230041F88E0000270A108EC8816FA0301F26FABD00945D27068E0000BFCBFEBDF00039A8
S1230061327FE7E4E6E4C1012610F6C880C102271CF6C8805CF7C8802013E6E4C1FF260D30
S1230081F6C8805D2707F6C8805AF7C880326139D00030327FBDF192BDF1BAF6C811C40102
S12300A15D2707C6FFBD0061200DF6C811C4025D2705C601BD0061F6C8803404C6B0E7E2E8
S12300C1C678BD01EA3262BDF2A5BDF354C67FD704F6C8804F1F01E6890091E7E4C6C0E744
S12300E1E2E661BD02463261C640D7048E0145BDF41016FFA00030F0FF0020FFE000FF00F2
S1230101E0FF200000E010FFE0000010E0FF004000D0F0FF20F0FFE0F0010000001900FF26
S12301213200FF00F6FF0A0AFF0AECFF1E00FF0A0AFF0014FFF60AFFE200FFF6ECFFF60A88
S1230141FF00F60100E8ECFF00ECFF2000FF0014FFE000000400FF040F00000AFFFC0F00AA
S1230161FC00FF0014FF2000FF00ECFFE000000800FF00D8001000FF040FFF000AFFFC0F6E
S1230181FF1CF0FF00F800F90CFF000CFF04FEFF00F40000F4FF00F4FFFCFEFF000C000762
S12301A104FFE4F00008F6FF0A00FF000FFFF70000001EFF0900FF000FFFF6000005E7FF44
S12301C104FEFF00FAFFFCFE01BDF192BDF2A5BDF354C67FD7046FE25FBD02463261C6FF60
S12301E1D7048E0145BDF410393279E7E4C680E764C630E762C630E761200BE6615CE761B7
S1230201E66ACB9CE76AE66AC16322EF200BE6625CE762E66ACBF6E76AE66AC10922EFE6C1
S12302216ACB30E763C6CCD70CC67FD704E6E4E766E669E7653061E666E7E2E666BD024BC7
S11802413261326739A6627EF3123440A6643384BDF37A35C060
S9030000FC
