S12300006720474345203230323580FD0DF85028A6444F444745204348414C4C454E4745F7
S105002080005A
S1230021008E0006271BCE006033C9041033C9000033C90000108EC880A6C0A7A0301F26A7
S1220041F88E0004270A108EC8866FA0301F26FABD04125D2706CC0000FDCBFE7EF0001A
S11800607FC88639F6C886C1F02206CB05F7C886397FC8863910
S12300757FC88739FFE0F800E0F8FFE0F800E0F8FFC0F000C0F0FFC0F000C0F0FFA0E800BD
S1230095A0E8FFA0E800A0E8FF80E00080E0FF80E00080E0FF80E0FFE0F801FFE00800E034
S12300B508FFE00800E008FFC01000C010FFC01000C010FFA01800A018FFA01800A018FF35
S11C00D58020008020FF8020008020FF8020FFE008015D51453A312A225E
S12300EE7FC888393420327CF6C8874F1F01E68900E74FEDE4108E00033420AE62BD0426CE
S123010E3262AFE4F6C8864FED621F104F3406AE64BD04261F104F10AFE41F01BD04151FDD
S123012E10F7C888326635A0327DBDF2A5BDF354C67FD704C624E7E2C6F1BD0439C6A8D719
S123014E04C680E7E2CB2EBD0434BDF354C67FD704F6C888E7633262C1021027006EC6FB1B
S123016EE061E7E4C609E06158583404E661BD04393261C610D7048E0079BDF410BDF35418
S123018EC67FD704F6C888E762C1021027005DC609E06258583404E663CB05E763BD0439F1
S12301AE3261C610D7048E00B0BDF410BDF354C67FD704C624E7E2C60FBD0439C6FFD704A4
S12301CEC6B0E7E2C634BD0434326539C624E7E2C6FBBD0439C6FCE7E2CB03BD0434C6FC91
S12301EEE7E2CB03BD0439326316FF87C624E7E2C605BD0439C6FCE7E2C601BD0434C6FCAA
S123020EE7E2C601BD0439326316FF9600E8ECFF00ECFF2000FF0014FFE000000400FF042B
S123022E0F00000AFFFC0F00FC00FF0014FF2000FF00ECFFE000000800FF00D8001000FFA3
S123024E040FFF000AFFFC0FFF1CF0FF00F800F90CFF000CFF04FEFF00F40000F4FF00F479
S123026EFFFCFEFF000C000704FFE4F00008F6FF0A00FF000FFFF70000001EFF0900FF005A
S123028E0FFFF6000005E7FF04FEFF00FAFFFCFE0100A0B0FF00B0FF7F00FF0050FF80001D
S12302AE001000FF103C000028FFF03C00F000FF0050FF7F00FF00B0FF8000002000FF0074
S12302CEB0FF00B0004000FF103CFF0028FFF03CFF70C0FF00E000E430FF0030FF10F8FF79
S12302EE00D00000D0FF00D0FFF0F8FF0030001C10FF90C00020D8FF2800FF003CFFDC00B7
S120030E000078FF2400FF003CFFD80000149CFF10F8FF00E8FFF0F80100E8E801CA
S123032BC601F7C88939C101270FC1FF270139F6C88927FA5AF7C88939F6C889C10227EEEB
S123034B5CF7C88939327FBDF1BAF6C811E7E4C501272BF6C8892639C602E4E4270CF6C8BF
S123036B8727045AF7C887326139C608E4E427F7F6C887C10627F05CF7C887326139C60441
S123038BE4E427D4F6C889C10227CD5CF7C88920C75AF7C88920C1B90047C610D7048E023E
S11B03AB9F7EF410C640D7048E021A7EF410C640D7048E021A7EF410FB
S12303C3327EBDF2A5BDF354C67FD704F6C8894F1F01C690E7E2E68903A2BD0439F6C889C4
S12303E34FED6158491F01AD99C88032633939BD0060BD0075BD00EEBD032BBDF192BD0021
S123040364BD00F2BD0136BD0350BD03C320ECBD03F2EC6226037EF0003410BD043E3262C1
S12304231F0139EC6226037EF0003410BD043E3590A6627EF3DFA6627EF312327D6F606CA2
S1230443604D2B066C60584920F8ED61EC656F656F66A3612406E3611CFE20021A01696652
S11004636965646166626A6026E832633987
S9030000FC
