S12300006720474345203230323580FD0DF85028A6444F444745204348414C4C454E4745F7
S105002080005A
S1230021008E0000271BCE006033C90ABE33C9000033C90000108EC880A6C0A7A0301F26F9
S1220041F88E002E270A108EC8806FA0301F26FABD0AA25D2706CC0000FDCBFE7EF00060
S1110060398E0060BFC8827FC8817FC8803996
S123006ECC0000FDC885C631F7C88439F6C88427055AF7C88439C631F7C884FCC885C3005B
S108008E01FDC88539E5
S123009334408EC8896F846F1F6F1ECE00DBEF0130058CC8A226EE8EC887BFC8A035C034E3
S12300B3403404BEC8A0C6FFEE03118300DB2704326135C0CE00DCEF036F02C61EE701E6F4
S10D00D3E4E7845F326135C0393977
S12300DDCC0000FDC8A27FC8A4BD006EBD031CBD0757BD0061BD00938E00FCBFC8A5398ED4
S12300FD0103BFC8A5398E010ABFC8A539327FBDF192F6C8A4E7E2C6ECE7E2C664BD0AB739
S123011DBDF1BAF6C811E7623262C5012631C608E4E427037AC8A4C606E4E4C1062712C68D
S123013D02E4E42620C604E4E427068E078EBFC8ACBD007AAD9FC8A8AD9FC8AC3261397C7E
S123015DC8A43261398E077CBFC8AC20E43939007EC9FF006E00F808FF920000F000FF92C6
S123017D0000F8F8FF00920008F8FF6E00001000FF6E00008A7F0100763FFF920000F000B3
S123019DFF92000076FF01007EC9FF006E00F808FF920000F8F8FF009200F8F8FF920000F0
S12301BDF808FF006E007E0901007EC9FF006E00F808FF920000F000FF920000F8F8FF0074
S12301DD92007E00FF006E000009010076C1FF920000F808FF006E007608FF920000F00043
S12301FDFF920000760101007E37FF009200F8F8FF920000F808FF006E00F808FF92000010
S123021DF8F8FF0092007E77010076C1FF920000F000FF920000F808FF006E000808FF6E13
S123023D000008F8FF009200007701007EC9FF006E00F808FF920000F000FF920000760157
S123025D01007EC9FF006E00F808FF920000F000FF920000F8F8FF00920008F8FF6E0000C8
S123027D1000FF6E00008A08FF006E00000901008A3FFF6E00001000FF6E000008F8FF0025
S123029D9200F8F8FF920000F808FF006E00000901016C019401A401C601E802040226022C
S12302BD48025E028CFFC070FFC09000007FFF4070FF409000007FFFC070FFC09000007FF0
S11602DD00007FFF7F7F000081FF817F00607F00003901F5
S12302F0060504040302020201010006050403020202010100000605040303020102010196
S1230310000605040302020201010000F6C8A44F1F01E68902F08E0506BFC8A8F7C8A73916
S1230330FFF0FC00E4F9FFD8F600CCF3FFC0F000B4EDFFA8EA009CE7FF90E40084E1FFBC5E
S1230350EFFFBCEF00B6ED00B6EEFFB0ECFFB0EC00AAEA00AAEBFF84E10100F8FEFFECFB09
S123037000DCF7FFD4F500C4F1FFBCEF00ACEBFFA4E90094E5FF8CE30084E100F8FEFFB853
S1230390EEFFBCEF00AEEB00B6EEFFACEBFFB0EC00A2E800AAEBFF84E10100F0FCFFE4F9F7
S12303B000D8F6FFCCF300C0F0FFB4ED00A8EAFF9CE70090E4FF84E10084E100F4FDFFB05C
S12303D0ECFFBCEF00AAEA00B6EEFFA4E9FFB0EC01FFF8FE00F0FCFFE0F800D0F4FFC8F2DE
S12303F000B8EEFFB0EC00A0E8FF98E60088E2FF81E00084E100ECFBFFACEBFFBCEF00A2AB
S1230410E800B6EEFFA0E8FFB0EC01FFF00400E407FFD80A00CC0DFFC01000B413FFA8162E
S1230430009C19FF901C00841FFFBC11FFBC1100B61300B612FFB014FFB01400AA1600AA8C
S123045015FF841F0100F802FFEC0500DC09FFD40B00C40FFFBC1100AC15FFA41700941B5A
S1230470FF8C1D00841F00F802FFB812FFBC1100AE1500B612FFAC15FFB01400A21800AA1C
S123049015FF841F0100F004FFE40700D80AFFCC0D00C010FFB41300A816FF9C1900901C44
S12304B0FF841F00841F00F403FFB014FFBC1100AA1600B612FFA417FFB01401FFF802005E
S12304D0F004FFE00800D00CFFC80E00B812FFB01400A018FF981A00881EFF812000841F9D
S12304F000EC05FFAC15FFBC1100A21800B612FFA018FFB01401BDF2A5BDF354C67FD704F6
S1230510C624E7E2C6F1BD0B0EC6A8D704C680E7E2CB2EBD0B09BDF354C67FD704C624E770
S1230530E2C6FBBD0B0EC610D7048E0330BDF410BDF354C67FD704C624E7E2C605BD0B0E83
S1230550C610D7048E041BBDF410BDF354C67FD704C624E7E2C60FBD0B0EC6A8D704C68057
S1230570E7E2C652BD0B09F6C8A732665D27055AF7C8A7398E0598BFC8A8F6C8A44F1F010B
S1230590E68902FBF7C8A739BDF2A5BDF354C67FD704C624E7E2C6F1BD0B0EC6A8D704C675
S12305B080E7E2CB2EBD0B09BDF354C67FD704C624E7E2C6FBBD0B0EC610D7048E036ABD3D
S12305D0F410BDF354C67FD704C624E7E2C605BD0B0EC610D7048E0455BDF410BDF354C668
S12305F07FD704C624E7E2C60FBD0B0EC6A8D704C680E7E2C652BD0B09F6C8A732665D276D
S1230610055AF7C8A7398E062ABFC8A8F6C8A44F1F01E6890306F7C8A739BDF2A5BDF3549B
S1230630C67FD704C624E7E2C6F1BD0B0EC6A8D704C680E7E2CB2EBD0B09BDF354C67FD704
S123065004C624E7E2C6FBBD0B0EC610D7048E03AABDF410BDF354C67FD704C624E7E2C6EE
S123067005BD0B0EC610D7048E0495BDF410BDF354C67FD704C624E7E2C60FBD0B0EC6A802
S1230690D704C680E7E2C652BD0B09F6C8A732665D27055AF7C8A7398E06BCBFC8A8F6C8B7
S12306B0A44F1F01E6890311F7C8A739BDF2A5BDF354C67FD704C624E7E2C6F1BD0B0EC673
S12306D0A8D704C680E7E2CB2EBD0B09BDF354C67FD704C624E7E2C6FBBD0B0EC610D7048B
S12306F08E03E1BDF410BDF354C67FD704C624E7E2C605BD0B0EC610D7048E04CCBDF4106B
S1230710BDF354C67FD704C624E7E2C60FBD0B0EC6A8D704C680E7E2C652BD0B09F6C8A79D
S121073032665D27055AF7C8A7398E0506BFC8A8F6C8A44F1F01E68902F0F7C8A739F4
S123074EAE00520A140A380A7E8E0766BFC8AC7FC8ABC601F7C8AA39327EBDF2A5F6C8AAAA
S123076E4FEDE458491F01AD990751326239F6C8AA27045AF7C8AA8E0766BFC8AC7E0766AC
S123078EF6C8AAC10227045CF7C8AA8E0766BFC8AC7E07663900A0B0FF00B0FF7F00FF005E
S12307AE50FF8000001000FF103C000028FFF03C00F000FF0050FF7F00FF00B0FF800000BF
S12307CE2000FF00B0FF00B0004000FF103CFF0028FFF03C01002088FF2800FF003CFFDCC6
S12307EE0000E0ECFF7040FF0020FF9040002028FF2800FF00C4FFDC00002DE4FF0030FF32
S123080E10F8FF00D00000D0FF00D0FFF0F8FF003000E40CFF1008FF0018FFF00801000C18
S123082E78FF8800FFDC18FF0078FF2418FF7800FF24E8FF0088FFDCE800F400FF18A6FF86
S123084E00C4FFE8A6000C00FF8800FFDC18FF2418FF0C0000E8DCFF184E0000A6FF007823
S123086EFF00780000A6FFE86000F44500F445FF24E8FF7800FF241800D018FF001EFF18B7
S123088E0CFF5400FF18F4FFE8F4FFAC00FFE80C004500004500FF0094FFE8F4FFC40000A8
S12308AE00E2FF2A1E002A18FF3C2A00F4F4FF0030FFE8F4FF00D0002418FF00C400F4EEB4
S12308CEFF00D0FFE8DCFF002A00243CFFC094FFC094FFC094000C00FF2418FFE81200AC06
S12308EEF700ACF7FF0088FF24E8FF7800FF2418FF007800FA2AFF4800FF180CFF006CFF99
S123090EE8F4FFF40000240CFFEE0C00CAE2FF2442FF002AFFDCE8010008B0FFB000FFE881
S123092EF0FF00B0FF18F0FF5000FF1810FF0050FFE81000F800FF103CFF0028FFF03C00AE
S123094E0800FFB000FFE8F0FF18F0FF080000F018FF10CC00003CFF00B0FF00B000003C30
S123096EFFF0C000F0A4FF1810FF5000FF18F000E0F0FF00ECFF10F8FF3800FF1008FFF0A6
S123098E08FFC800FFF0F8005800FF0048FFF008FFD800000014FF1CEC001CF0FF28E400F0
S12309AEF808FF00E0FFF008FF00200018F0FF002800F80CFF0020FFF018FF00E40018D804
S12309CEFFC06CFFC06C000800FF18F0FFF0F400900CFF0050FF1810FF5000FF18F0FF0056
S12309EEB000FCE4FF3000FF10F8FF00B8FFF008FFF8000018F8FFF4F800DC14FF18D4FFA5
S1230A0E00E4FFE81001BDF354C67FD704F6C8AA4F1F01C690E7E2E689074EBD0B0EC60A64
S1230A2ED70432618E082C7EF410BDF354C67FD704F6C8AA4F1F01C690E7E2E689074EBD57
S1230A4E0B0EC610D7048E07A3BDF410BDF354C67FD704F6C8AA4F1F01C690E7E2E6890731
S1230A6E4EBD0B0EC610D70432628E07E37EF410BDF354C67FD704F6C8AA4F1F01C690E7C9
S1230A8EE2E689074EBD0B0EC610D70432618E09267EF4107FC8A4CC0000FDC8A28E00DDBC
S1230AAEBFC8A5AD9FC8A520FA327BE7E4C680E764C630E762E761E668C163230E6C61E63F
S1230ACE61E668CB9CE768C16322F2E668C109230E6C62E662E668CBF6E768C10922F2E6E6
S1230AEE68CB30E763C6CCD70CC67FD704E6E434043062E668BD0B13326639A6627EF3DFBC
S1130B0EA6627EF3123440A6643384BDF37A35C0F4
S9030000FC
