S12300006720474345203230323580FD0DF85028A6444F444745204348414C4C454E4745F7
S105002080005A
S1230021008E0001271BCE006133C9040233C9000033C90000108EC880A6C0A7A0301F26B9
S1230041F88E0002270A108EC8816FA0301F26FABD039E5D27068E0000BFCBFEBDF0003999
S11C00617FC88139F6C881C1F023057FC8812008F6C881CB05F7C88139F1
S123007A7FC88239FFFCFF00FCFFFFFCFF00FCFFFFF8FE00F8FEFFF8FE00F8FEFFF4FD00B0
S123009AF4FDFFF4FD00F4FDFFF0FC00F0FCFFF0FC00F0FCFFECFB01FFFC0100FC01FFFCE7
S12300BA0100FC01FFF80200F802FFF80200F802FFF40300F403FFF40300F403FFF0040071
S12300DAF004FFF00400F004FFEC05015D51453A312A2234403274BDF2A5BDF354C67FD7FE
S12300FA04C624E7E2C6F1BD04213261C6FFD704C6B0E7E2C6CCBD041C3261F6C881E76395
S123011AF6C8824F1F01E68900E64F8E000334101F01BD03B232621F10E762E6634F1F0143
S123013AE6624FEDE4EEE43440BD03B232621F104F8E000334101F01BD03A132621F10E76F
S123015A66E666E767BDF354C67FD704E667C1022623C624E7E2C6FBBD04213261C6FCE772
S123017AE2C6FFBD041C3261C6FCE7E2C6FFBD042132612021C6FBE762E662E067E764C69A
S123019A09E0675858E769E664E768E669E7E2E669BD042132618E007EBDF410BDF354C6E5
S12301BA7FD704E667C1022623C624E7E2C605BD04213261C6FCE7E2C601BD041C3261C6F3
S12301DAFCE7E2C601BD04213261201DE667CB05E765C609E0675858E76BE665E76AE66B55
S12301FAE7E2E66BBD042132618E00B2BDF410BDF354C67FD704C624E7E2C60FBD04213291
S123021A61C6FFD704C6B0E7E2C634BD041C3261326C35C000E8ECFF00ECFF2000FF001492
S123023AFFE000000400FF040F00000AFFFC0F00FC00FF0014FF2000FF00ECFFE000000897
S123025A00FF00D8001000FF040FFF000AFFFC0FFF1CF0FF00F800F90CFF000CFF04FEFF62
S123027A00F40000F4FF00F4FFFCFEFF000C000704FFE4F00008F6FF0A00FF000FFFF70098
S123029A00001EFF0900FF000FFFF6000005E7FF04FEFF00FAFFFCFE0100E8EC0100E8EC8E
S10402BA013E
S12302BB327FE7E4E6E4C1012610F6C880C102271CF6C8805CF7C8802013E6E4C1FF260DD4
S12302DBF6C8805D2707F6C8805AF7C880326139BDF1BAF6C811C4015D2707C6FFBD02BBCD
S12302FB200DF6C811C4045D2705C601BD02BBF6C811C4025D2716F6C8825D2607C606F795
S123031BC8822024F6C8825AF7C882201BF6C811C4085D2713F6C882C10626057FC88220CD
S123033B07F6C8825CF7C88239B90047327FBDF2A5BDF354C67FD704F6C8804F1F01E6893C
S123035B0344E7E4C690E7E2E661BD04213261C640D7048E022EBDF410326139BD0061BD8A
S123037B007ABDF192BD0065BD00EDBD02EBF6C8823404C63CE7E2C678BD03C03262BD03D9
S123039B4720DFBD0377EC6226037EF0003410BD042632621F0139EC6226037EF00034109B
S12303BBBD042635903279E7E4C680E764C630E762C630E761200BE6615CE761E66ACB9C21
S12303DBE76AE66AC16322EF200BE6625CE762E66ACBF6E76AE66AC10922EFE66ACB30E751
S12303FB63C6CCD70CC67FD704E6E4E766E669E7653061E666E7E2E666BD045832613267FD
S123041B39A6627EF3DFA6627EF312327D6F606C604D2B066C60584920F8ED61EC656F65E1
S123043B6F66A3612406E3611CFE20021A0169666965646166626A6026E83263393440A615
S10B045B643384BDF37A35C05B
S9030000FC
