S12300006720474345203230323580FD0DF85028A6444F444745204348414C4C454E4745F7
S105002080005A
S1230021008E0000271BCE006033C90A7133C9000033C90000108EC880A6C0A7A0301F2646
S1220041F88E002E270A108EC8806FA0301F26FABD0A555D2706CC0000FDCBFE7EF000AD
S1110060398E0060BFC8827FC8817FC8803996
S123006ECC0000FDC885C631F7C88439F6C88427055AF7C88439C631F7C884FCC885C3005B
S108008E01FDC88539E5
S123009334408EC8896F846F1F6F1ECE00DBEF0130058CC8A226EE8EC887BFC8A035C034E3
S12300B3403404BEC8A0C6FFEE03118300DB2704326135C0CE00DCEF036F02C61EE701E6F4
S10D00D3E4E7845F326135C0393977
S12300DDCC0000FDC8A27FC8A4BD006EBD031CBD0757BD0061BD00938E00FCBFC8A5398ED4
S12300FD0103BFC8A5398E010ABFC8A539327FBDF192F6C8A4E7E2C6ECE7E2C664BD0A6A86
S123011DBDF1BAF6C811E7623262C5012631C608E4E427037AC8A4C606E4E4C1062712C68D
S123013D02E4E42620C604E4E427068E07A6BFC8ACBD007AAD9FC8A8AD9FC8AC3261397C66
S123015DC8A43261398E0794BFC8AC20E43939007EC9FF006E00F808FF920000F000FF92AE
S123017D0000F8F8FF00920008F8FF6E00001000FF6E00008A7F0100763FFF920000F000B3
S123019DFF92000076FF01007EC9FF006E00F808FF920000F8F8FF009200F8F8FF920000F0
S12301BDF808FF006E007E0901007EC9FF006E00F808FF920000F000FF920000F8F8FF0074
S12301DD92007E00FF006E000009010076C1FF920000F808FF006E007608FF920000F00043
S12301FDFF920000760101007E37FF009200F8F8FF920000F808FF006E00F808FF92000010
S123021DF8F8FF0092007E77010076C1FF920000F000FF920000F808FF006E000808FF6E13
S123023D000008F8FF009200007701007EC9FF006E00F808FF920000F000FF920000760157
S123025D01007EC9FF006E00F808FF920000F000FF920000F8F8FF00920008F8FF6E0000C8
S123027D1000FF6E00008A08FF006E00000901008A3FFF6E00001000FF6E000008F8FF0025
S123029D9200F8F8FF920000F808FF006E00000901016C019401A401C601E802040226022C
S12302BD48025E028CFFC070FFC09000007FFF4070FF409000007FFFC070FFC09000007FF0
S11602DD00007FFF7F7F000081FF817F00607F00003901F5
S12302F0060504040302020201010006050403020202010100000605040303020102010196
S1230310000605040302020201010000F6C8A44F1F01E68902F08E0506BFC8A8F7C8A73916
S1230330FFF0FC00E4F9FFD8F600CCF3FFC0F000B4EDFFA8EA009CE7FF90E40084E1FFBC5E
S1230350EFFFBCEF00B6ED00B6EEFFB0ECFFB0EC00AAEA00AAEBFF84E10100F8FEFFECFB09
S123037000DCF7FFD4F500C4F1FFBCEF00ACEBFFA4E90094E5FF8CE30084E100F8FEFFB853
S1230390EEFFBCEF00AEEB00B6EEFFACEBFFB0EC00A2E800AAEBFF84E10100F0FCFFE4F9F7
S12303B000D8F6FFCCF300C0F0FFB4ED00A8EAFF9CE70090E4FF84E10084E100F4FDFFB05C
S12303D0ECFFBCEF00AAEA00B6EEFFA4E9FFB0EC01FFF8FE00F0FCFFE0F800D0F4FFC8F2DE
S12303F000B8EEFFB0EC00A0E8FF98E60088E2FF81E00084E100ECFBFFACEBFFBCEF00A2AB
S1230410E800B6EEFFA0E8FFB0EC01FFF00400E407FFD80A00CC0DFFC01000B413FFA8162E
S1230430009C19FF901C00841FFFBC11FFBC1100B61300B612FFB014FFB01400AA1600AA8C
S123045015FF841F0100F802FFEC0500DC09FFD40B00C40FFFBC1100AC15FFA41700941B5A
S1230470FF8C1D00841F00F802FFB812FFBC1100AE1500B612FFAC15FFB01400A21800AA1C
S123049015FF841F0100F004FFE40700D80AFFCC0D00C010FFB41300A816FF9C1900901C44
S12304B0FF841F00841F00F403FFB014FFBC1100AA1600B612FFA417FFB01401FFF802005E
S12304D0F004FFE00800D00CFFC80E00B812FFB01400A018FF981A00881EFF812000841F9D
S12304F000EC05FFAC15FFBC1100A21800B612FFA018FFB01401BDF2A5BDF354C67FD704F6
S1230510C624E7E2C6F1BD0AC1C6A8D704C680E7E2CB2EBD0ABCBDF354C67FD704C624E70C
S1230530E2C6FBBD0AC1C610D7048E0330BDF410BDF354C67FD704C624E7E2C605BD0AC11F
S1230550C610D7048E041BBDF410BDF354C67FD704C624E7E2C60FBD0AC1C6A8D704C680A5
S1230570E7E2C652BD0ABCF6C8A732665D27055AF7C8A7398E0598BFC8A8F6C8A44F1F0159
S1230590E68902FBF7C8A739BDF2A5BDF354C67FD704C624E7E2C6F1BD0AC1C6A8D704C6C3
S12305B080E7E2CB2EBD0ABCBDF354C67FD704C624E7E2C6FBBD0AC1C610D7048E036ABDD9
S12305D0F410BDF354C67FD704C624E7E2C605BD0AC1C610D7048E0455BDF410BDF354C6B6
S12305F07FD704C624E7E2C60FBD0AC1C6A8D704C680E7E2C652BD0ABCF6C8A732665D2709
S1230610055AF7C8A7398E062ABFC8A8F6C8A44F1F01E6890306F7C8A739BDF2A5BDF3549B
S1230630C67FD704C624E7E2C6F1BD0AC1C6A8D704C680E7E2CB2EBD0ABCBDF354C67FD7A0
S123065004C624E7E2C6FBBD0AC1C610D7048E03AABDF410BDF354C67FD704C624E7E2C63C
S123067005BD0AC1C610D7048E0495BDF410BDF354C67FD704C624E7E2C60FBD0AC1C6A89E
S1230690D704C680E7E2C652BD0ABCF6C8A732665D27055AF7C8A7398E06BCBFC8A8F6C805
S12306B0A44F1F01E6890311F7C8A739BDF2A5BDF354C67FD704C624E7E2C6F1BD0AC1C6C1
S12306D0A8D704C680E7E2CB2EBD0ABCBDF354C67FD704C624E7E2C6FBBD0AC1C610D70427
S12306F08E03E1BDF410BDF354C67FD704C624E7E2C605BD0AC1C610D7048E04CCBDF410B9
S1230710BDF354C67FD704C624E7E2C60FBD0AC1C6A8D704C680E7E2C652BD0ABCF6C8A739
S121073032665D27055AF7C8A7398E0506BFC8A8F6C8A44F1F01E68902F0F7C8A739F4
S123074EAE00520A370A410A4B8E0766BFC8AC7FC8ABC601F7C8AA39327EBDF2A5BDF35415
S123076EC67FD704F6C8AA4F1F01C690E7E2E689074EBD0AC1F6C8AA4FED6158491F01AD92
S123078E990751326339F6C8AA27045AF7C8AA8E0766BFC8AC7E0766F6C8AAC10227045C67
S12307AEF7C8AA8E0766BFC8AC7E07663900A0B0FF00B0FF7F00FF0050FF8000001000FF12
S12307CE103C000028FFF03C00F000FF0050FF7F00FF00B0FF8000002000FF00B0FF00B0FF
S12307EE004000FF103CFF0028FFF03CFF70C0FF00E000E430FF0030FF10F8FF00D00000E3
S123080ED0FF00D0FFF0F8FF0030001C10FF90C00020D8FF2800FF003CFFDC00000078FFEA
S123082E2400FF003CFFD80000149CFF10F8FF00E8FFF0F801000C78FF8800FFDC18FF00ED
S123084E78FF2418FF7800FF24E8FF0088FFDCE800F400FF18A6FF00C4FFE8A6000C00FFFB
S123086E8800FFDC18FF2418FF0C0000E8DCFF184E0000A6FF0078FF00780000A6FFE860FB
S123088E00F44500F445FF24E8FF7800FF241800D018FF001EFF180CFF5400FF18F4FFE8AA
S12308AEF4FFAC00FFE80C004500004500FF0094FFE8F4FFC4000000E2FF2A1E002A18FF6F
S12308CE3C2A00F4F4FF0030FFE8F4FF00D0002418FF00C400F4EEFF00D0FFE8DCFF002A43
S12308EE00243CFFC094FFC094FFC094000C00FF2418FFE81200ACF700ACF7FF0088FF245D
S123090EE8FF7800FF2418FF007800FA2AFF4800FF180CFF006CFFE8F4FFF40000240CFFBE
S123092EEE0C00CAE2FF2442FF002AFFDCE801000C88FF8800FFDCE8FF0088FF24E8FF78C6
S123094E00FF2418FF0078FFDC1800F400FF185AFF003CFFE85A000C00FF8800FFDCE8FFAA
S123096E24E8FF0C0000E824FF18B200005AFF0088FF008800005AFFE8A000F4BB00F4BBD2
S123098EFF2418FF7800FF24E800D0E8FF00E2FF18F4FF5400FF180CFFE80CFFAC00FFE8E9
S12309AEF4004500004500FF006CFFE80CFFC40000001EFF2AE2002AE8FF3CD600F40CFF3B
S12309CE00D0FFE80CFF00300024E8FF003C00F412FF0030FFE824FF00D60024C4FFC06CA4
S12309EEFFC06CFFC06C000C00FF24E8FFE8EE00AC0900AC09FF0078FF2418FF7800FF24ED
S1230A0EE8FF008800FAD6FF4800FF18F4FF0094FFE80CFFF4000024F4FFEEF400CA1EFFDA
S1230A2E24BEFF00D6FFDC1801C60AD7048E08437EF410C610D7048E07BB7EF410C60AD7C9
S1230A4E048E093D7EF4107FC8A4CC0000FDC8A28E00DDBFC8A5AD9FC8A520FA327BE7E42A
S1230A6EC680E764C630E762E761E668C163230E6C61E661E668CB9CE768C16322F2E6680B
S1230A8EC109230E6C62E662E668CBF6E768C10922F2E668CB30E763C6CCD70CC67FD704CF
S1230AAEE6E434043062E668BD0AC6326639A6627EF3DFA6627EF3123440A6643384BDF31C
S1060ACE7A35C0B2
S9030000FC
