S12300006720474345203230323580FD0DF85028A6444F444745204348414C4C454E4745F7
S105002080005A
S1230021008E0000271BCE006033C90EC333C9000033C90000108EC880A6C0A7A0301F26F0
S1220041F88E002E270A108EC8806FA0301F26FABD0EA75D2706CC0000FDCBFE7EF00057
S1110060398E0060BFC8827FC8817FC8803996
S123006ECC0000FDC885C631F7C88439F6C88427055AF7C88439C631F7C884FCC885C3005B
S108008E01FDC88539E5
S123009334408EC8896F846F1F6F1ECE00DBEF0130058CC8A226EE8EC887BFC8A035C034E3
S12300B3403404BEC8A0C6FFEE03118300DB2704326135C0CE00DCEF036F02C61EE701E6F4
S10D00D3E4E7845F326135C0393977
S12300DDCC0000FDC8A27FC8A4BD006EBD0340BD07C5BD0061BD00938E00FCBFC8A5398E42
S12300FD0103BFC8A5398E010ABFC8A539327FBDF192F6C8A4E7E2C6ECE7E2C664BD0EBC30
S123011DBDF1BAF6C811E7623262C501263DC608E4E427037AC8A4C606E4E4C106271EC675
S123013D02E4E4272C7DC8AB2613F6C8A44F1F01E6890772F7C8AB8E0A53BFC8ACBD007AE0
S123015DAD9FC8A8AD9FC8AC3261397CC8A4326139C604E4E427E67DC8AB26E1F6C8A44F3B
S123017D1F01E6890772F7C8AB8E0BF2BFC8AC20CC3939007EC9FF006E00F808FF9200008B
S123019DF000FF920000F8F8FF00920008F8FF6E00001000FF6E00008A7F0100763FFF9202
S12301BD0000F000FF92000076FF01007EC9FF006E00F808FF920000F8F8FF009200F8F871
S12301DDFF920000F808FF006E007E0901007EC9FF006E00F808FF920000F000FF920000B2
S12301FDF8F8FF0092007E00FF006E000009010076C1FF920000F808FF006E007608FF9224
S123021D0000F000FF920000760101007E37FF009200F8F8FF920000F808FF006E00F80890
S123023DFF920000F8F8FF0092007E77010076C1FF920000F000FF920000F808FF006E00DF
S123025D0808FF6E000008F8FF009200007701007EC9FF006E00F808FF920000F000FF9231
S123027D0000760101007EC9FF006E00F808FF920000F000FF920000F8F8FF00920008F89E
S123029DFF6E00001000FF6E00008A08FF006E00000901008A3FFF6E00001000FF6E000097
S12302BD08F8FF009200F8F8FF920000F808FF006E00000901019001B801C801EA020C0286
S12302DD28024A026C028202B0FFC070FFC09000007FFF4070FF409000007FFFC070FFC0FD
S11A02FD9000007F00007FFF7F7F000081FF817F00607F00003901C2
S1230314060504040302020201010006050403020202010100000605040303020102010171
S1230334000605040302020201010000F6C8A44F1F01E68903148E052ABFC8A8F7C8A739A9
S1230354FFF0FC00E4F9FFD8F600CCF3FFC0F000B4EDFFA8EA009CE7FF90E40084E1FFBC3A
S1230374EFFFBCEF00B6ED00B6EEFFB0ECFFB0EC00AAEA00AAEBFF84E10100F8FEFFECFBE5
S123039400DCF7FFD4F500C4F1FFBCEF00ACEBFFA4E90094E5FF8CE30084E100F8FEFFB82F
S12303B4EEFFBCEF00AEEB00B6EEFFACEBFFB0EC00A2E800AAEBFF84E10100F0FCFFE4F9D3
S12303D400D8F6FFCCF300C0F0FFB4ED00A8EAFF9CE70090E4FF84E10084E100F4FDFFB038
S12303F4ECFFBCEF00AAEA00B6EEFFA4E9FFB0EC01FFF8FE00F0FCFFE0F800D0F4FFC8F2BA
S123041400B8EEFFB0EC00A0E8FF98E60088E2FF81E00084E100ECFBFFACEBFFBCEF00A286
S1230434E800B6EEFFA0E8FFB0EC01FFF00400E407FFD80A00CC0DFFC01000B413FFA8160A
S1230454009C19FF901C00841FFFBC11FFBC1100B61300B612FFB014FFB01400AA1600AA68
S123047415FF841F0100F802FFEC0500DC09FFD40B00C40FFFBC1100AC15FFA41700941B36
S1230494FF8C1D00841F00F802FFB812FFBC1100AE1500B612FFAC15FFB01400A21800AAF8
S12304B415FF841F0100F004FFE40700D80AFFCC0D00C010FFB41300A816FF9C1900901C20
S12304D4FF841F00841F00F403FFB014FFBC1100AA1600B612FFA417FFB01401FFF802003A
S12304F4F004FFE00800D00CFFC80E00B812FFB01400A018FF981A00881EFF812000841F79
S123051400EC05FFAC15FFBC1100A21800B612FFA018FFB01401BDF2A5BDF354C67FD704D1
S1230534C624E7E2C6F1BD0F13C6A8D704C680E7E2CB2EBD0F0EBDF354C67FD704C624E73A
S1230554E2C6FBBD0F13C610D7048E0354BDF410BDF354C67FD704C624E7E2C605BD0F1329
S1230574C610D7048E043FBDF410BDF354C67FD704C624E7E2C60FBD0F13C6A8D704C68006
S1230594E7E2C652BD0F0EF6C8A732665D27055AF7C8A7398E05BCBFC8A8F6C8A44F1F01BA
S12305B4E689031FF7C8A739BDF2A5BDF354C67FD704C624E7E2C6F1BD0F13C6A8D704C623
S12305D480E7E2CB2EBD0F0EBDF354C67FD704C624E7E2C6FBBD0F13C610D7048E038EBDE3
S12305F4F410BDF354C67FD704C624E7E2C605BD0F13C610D7048E0479BDF410BDF354C617
S12306147FD704C624E7E2C60FBD0F13C6A8D704C680E7E2C652BD0F0EF6C8A732665D2736
S1230634055AF7C8A7398E064EBFC8A8F6C8A44F1F01E689032AF7C8A739BDF2A5BDF3542F
S1230654C67FD704C624E7E2C6F1BD0F13C6A8D704C680E7E2CB2EBD0F0EBDF354C67FD7CE
S123067404C624E7E2C6FBBD0F13C610D7048E03CEBDF410BDF354C67FD704C624E7E2C69D
S123069405BD0F13C610D7048E04B9BDF410BDF354C67FD704C624E7E2C60FBD0F13C6A8A8
S12306B4D704C680E7E2C652BD0F0EF6C8A732665D27055AF7C8A7398E06E0BFC8A8F6C866
S12306D4A44F1F01E6890335F7C8A739BDF2A5BDF354C67FD704C624E7E2C6F1BD0F13C622
S12306F4A8D704C680E7E2CB2EBD0F0EBDF354C67FD704C624E7E2C6FBBD0F13C610D70455
S12307148E0405BDF410BDF354C67FD704C624E7E2C605BD0F13C610D7048E04F0BDF410F4
S1230734BDF354C67FD704C624E7E2C60FBD0F13C6A8D704C680E7E2C652BD0F0EF6C8A767
S121075432665D27055AF7C8A7398E052ABFC8A8F6C8A44F1F01E6890314F7C8A73987
S12307720E0E0E0B0B0B08080505020707070606060404030301AE00520DD60D900E3EB446
S1230792BAC0C5CBD1D7DDE3E9EEF4FA060C12171D23292F353B40464C4C46403B352F295D
S12307B2231D17120C06FAF4EEE9E3DDD7D1CBC5C0BAB48E07D4BFC8AC7FC8ABC601F7C8A9
S12307D2AA39327EBDF2A5F6C8AA4FEDE458491F01AD99078B32623900A0B0FF00B0FF7FB1
S12307F200FF0050FF8000001000FF103C000028FFF03C00F000FF0050FF7F00FF00B0FFFC
S12308128000002000FF00B0FF00B0004000FF103CFF0028FFF03C01002088FF2800FF0018
S12308323CFFDC0000E0ECFF7040FF0020FF9040002028FF2800FF00C4FFDC00002DE4FF05
S12308520030FF10F8FF00D00000D0FF00D0FFF0F8FF003000E40CFF1008FF0018FFF008B2
S123087201000850FFB000FFE810FF0050FF1810FF5000FF18F0FF00B0FFE8F000F800FF1A
S123089210C4FF00D8FFF0C4000800FFB000FFE810FF1810FF080000F0E8FF10340000C429
S12308B2FF0050FF00500000C4FFF0400100D05800D058FF18F0FF5000FF181000E010FFD4
S12308D20014FF1008FF3800FF10F8FFF0F8FFC800FFF008005800FF00B8FFF0F8FFD80027
S12308F20000ECFF1C14001C10FF281CFF00D8FFC094FFC094003458003458FF00E4FF10D1
S123091218FF002000002EFF0020FFF0F8FF00E0010008B0FF1810FFF00C0090F4FF00B069
S1230932FF18F0FF5000FF1810FF005000FC1CFF3000FF1008FF0048FFF0F8FFF80000183A
S123095208FFF40800DCECFF182CFF001CFFE8F0010008B0FFB000FFE8F0FF00B0FF18F08C
S1230972FF5000FF1810FF0050FFE81000F800FF103CFF0028FFF03C000800FFB000FFE872
S1230992F0FF18F0FF080000F018FF10CC00003CFF00B0FF00B000003CFFF0C00100D0A862
S12309B200D0A8FF1810FF5000FF18F000E0F0FF00ECFF10F8FF3800FF1008FFF008FFC85E
S12309D200FFF0F8005800FF0048FFF008FFD800000014FF1CEC001CF0FF28E4FF0028FF55
S12309F2C06CFFC06C0034A80034A8FF001CFF10E8FF00E00000D2FF00E0FFF008FF00201A
S1230A1201000850FF18F0FFF0F400900CFF0050FF1810FF5000FF18F0FF00B000FCE4FF87
S1230A323000FF10F8FF00B8FFF008FFF8000018F8FFF4F800DC14FF18D4FF00E4FFE81014
S1230A5201F6C8AA102700DBC1011027008BF6C8A44F1F01F6C8ABE189077D102300CDBD9C
S1230A72F354C67FD704F6C8AB4F1F01C690E7E2E689079EBD0F13C610D7048E0963BDF4B3
S1230A9210BDF354C67FD704F6C8AB4F1F01C690E7E2E689079EBD0F13C610D7048E09AF2B
S1230AB2BDF410BDF354C67FD704F6C8AB4F1F01C690E7E2E689079EBD0F13C610D7048E12
S1230AD20A13BDF41032637AC8ABF6C8AB26097AC8AA8E07D4BFC8AC39F6C8A44F1F01F680
S1230AF2C8ABE189077D1023008BBDF354C67FD704F6C8AB4F1F01C690E7E2E6890791BDE2
S1230B120F13C610D7048E07EABDF410BDF354C67FD704F6C8AB4F1F01C690E7E2E689071B
S1230B329120408E07D4BFC8AC7E07D4BDF354C67FD704F6C8AB4F1F01C690E7E2E6890728
S1230B529EBD0F13C610D7048E07EABDF410BDF354C67FD704F6C8AB4F1F01C690E7E2E610
S1230B7289079EBD0F13C610D7048E082ABDF410326216FF52BDF354C67FD704F6C8AB4F49
S1230B921F01C690E7E2E6890791BD0F13C610D7048E0873BDF410BDF354C67FD704F6C8BD
S1230BB2AB4F1F01C690E7E2E6890791BD0F13C610D7048E08BFBDF410BDF354C67FD70415
S1230BD2F6C8AB4F1F01C690E7E2E6890791BD0F13C610D7048E0923BDF410326316FEE766
S1230BF2F6C8AAC1021027018CC101102700D2F6C8A44F1F01F6C8ABE189077D2258BDF3D3
S1230C1254C67FD704F6C8AB4F1F01C690E7E2E68907B8BD0F13C610D7048E07EABDF41055
S1230C32BDF354C67FD704F6C8AB4F1F01C690E7E2E68907B8BD0F13C610D7048E082ABD48
S1230C52F41032627AC8ABF6C8AB26097CC8AA8E07D4BFC8AC39BDF354C67FD704F6C8AB11
S1230C724F1F01C690E7E2E68907B8BD0F13C610D7048E0873BDF410BDF354C67FD704F62E
S1230C92C8AB4F1F01C690E7E2E68907B8BD0F13C610D7048E08BFBDF410BDF354C67FD749
S1230CB204F6C8AB4F1F01C690E7E2E68907B8BD0F13C610D7048E0923BDF410326316FF40
S1230CD283F6C8A44F1F01F6C8ABE189077D233ABDF354C67FD704F6C8AB4F1F01C690E7BD
S1230CF2E2E68907ABBD0F13C610D7048E07EABDF410BDF354C67FD704F6C8AB4F1F01C649
S1230D1290E7E2E68907AB16FF2BBDF354C67FD704F6C8AB4F1F01C690E7E2E68907ABBD0A
S1230D320F13C610D7048E0963BDF410BDF354C67FD704F6C8AB4F1F01C690E7E2E689077E
S1230D52ABBD0F13C610D7048E09AFBDF410BDF354C67FD704F6C8AB4F1F01C690E7E2E63A
S1230D728907ABBD0F13C610D7048E0A13BDF410326316FECF8E07D4BFC8AC7E07D4BDF309
S1230D9254C67FD704F6C8AA4F1F01C690E7E2E6890788BD0F13C610D7048E07EABDF41005
S1230DB2BDF354C67FD704F6C8AA4F1F01C690E7E2E6890788BD0F13C610D70432628E084B
S1230DD22A7EF410BDF354C67FD704F6C8AA4F1F01C690E7E2E6890788BD0F13C610D704A9
S1230DF28E0873BDF410BDF354C67FD704F6C8AA4F1F01C690E7E2E6890788BD0F13C61046
S1230E12D7048E08BFBDF410BDF354C67FD704F6C8AA4F1F01C690E7E2E6890788BD0F13D4
S1230E32C610D70432638E09237EF410BDF354C67FD704F6C8AA4F1F01C690E7E2E689078A
S1230E5288BD0F13C610D7048E0963BDF410BDF354C67FD704F6C8AA4F1F01C690E7E2E6A9
S1230E72890788BD0F13C610D7048E09AFBDF410BDF354C67FD704F6C8AA4F1F01C690E775
S1230E92E2E6890788BD0F13C610D70432638E0A137EF410397FC8A4CC0000FDC8A28E0025
S1230EB2DDBFC8A5AD9FC8A520FA327BE7E4C680E764C630E762E761E668C163230E6C6140
S1230ED2E661E668CB9CE768C16322F2E668C109230E6C62E662E668CBF6E768C10922F2DE
S1230EF2E668CB30E763C6CCD70CC67FD704E6E434043062E668BD0F18326639A6627EF3A4
S1140F12DFA6627EF3123440A6643384BDF37A35C00C
S9030000FC
