S12300006720474345203230323580FD0DF85028A6444F444745204348414C4C454E4745F7
S105002080005A
S1230021008E0004271BCE006133C9041333C9000033C90000108EC880A6C0A7A0301F26A5
S1230041F88E0000270A108EC8846FA0301F26FABD02F75D27068E0000BFCBFEBDF0003940
S1230061FFFCFF00FCFFFFFCFF00FCFFFFF8FE00F8FEFFF8FE00F8FEFFF4FD00F4FDFFF4E7
S1230081FD00F4FDFFF0FC00F0FCFFF0FC00F0FCFFECFB01FFFC0100FC01FFFC0100FC01E6
S12300A1FFF80200F802FFF80200F802FFF40300F403FFF40300F403FFF00400F004FFF0A5
S12300C10400F004FFEC050100E8ECFF00ECFF2000FF0014FFE000000400FF040F00000A42
S12300E1FFFC0F00FC00FF0014FF2000FF00ECFFE000000800FF00D8001000FF040FFF00F9
S12301010AFFFC0FFF1CF0FF00F800F90CFF000CFF04FEFF00F40000F4FF00F4FFFCFEFFE1
S1230121000C000704FFE4F00008F6FF0A00FF000FFFF70000001EFF0900FF000FFFF6009C
S11401410005E7FF04FEFF00FAFFFCFE0100E8EC01F4
S1230152327FE7E4E6E4C1012610F6C880C102271CF6C8805CF7C8802013E6E4C1FF260D3E
S1130172F6C8805D2707F6C8805AF7C8803261390D
S1230182F6C8835D2619F6C8815CF7C881F6C881C10326037FC881F6C882F7C8832007F60E
S12301A2C8835AF7C883393276BDF2A5BD0182BDF354C67FD704C624E7E2C6F1BD046F32ED
S12301C261C6FFD704C6B0E7E2C6CCBD046A3261BDF354C67FD704F6C881C1022623C62430
S12301E2E7E2C6FBBD046F3261C6FCE7E2C6FFBD046A3261C6FCE7E2C6FFBD046F3261206B
S12302022BF6C881E761C6FBE7E4E6E4E061E762F6C881E763C609E0635858E767E662E77E
S123022266E667E7E2E667BD046F32618E03D2BDF410BDF354C67FD704F6C881C102262399
S1230242C624E7E2C605BD046F3261C6FCE7E2C601BD046A3261C6FCE7E2C601BD046F3293
S1230262612027F6C881E7E4E6E4CB05E764F6C881E765C609E0655858E769E664E768E6C3
S123028269E7E2E669BD046F32618E0406BDF410BDF354C67FD704C624E7E2C60FBD046FDF
S12302A23261C6FFD704C6B0E7E2C634BD046A3261326A39BDF354C67FD7046FE25FBD04A4
S12302C26F3261F6C882860A3DCB32D7048E043ABDF41039B90047BDF2A5BDF354C67FD7F7
S12302E2046FE25FBD046F3261C6FFD7048E00C9BDF41020E2BD02D90030F0FF0020FFE011
S123030200FF00E0FF200000E010FFE0000010E0FF004000D0F0FF20F0FFE0F0010000003C
S12303221900FF3200FF00F6FF0A0AFF0AECFF1E00FF0A0AFF0014FFF60AFFE200FFF6EC6C
S1230342FFF60AFF00F60100E8ECFF00ECFF2000FF0014FFE000000400FF040F00000AFFB3
S1230362FC0F00FC00FF0014FF2000FF00ECFFE000000800FF00D8001000FF040FFF000A6A
S1230382FFFC0FFF1CF0FF00F800F90CFF000CFF04FEFF00F40000F4FF00F4FFFCFEFF0068
S12303A20C000704FFE4F00008F6FF0A00FF000FFFF70000001EFF0900FF000FFFF6000019
S12303C205E7FF04FEFF00FAFFFCFE01FF007F01FFFCFF00FCFFFFFCFF00FCFFFFF8FE00D9
S12303E2F8FEFFF8FE00F8FEFFF4FD00F4FDFFF4FD00F4FDFFF0FC00F0FCFFF0FC00F0FCA6
S1230402FFECFB01FFFC0100FC01FFFC0100FC01FFF80200F802FFF80200F802FFF4030021
S1230422F403FFF40300F403FFF00400F004FFF00400F004FFEC05010008FAFFF400FF001F
S12304420CFF0C00FF00F401BDF192BDF2A5BDF354C67FD7046FE25FBD046F3261C6FFD7C4
S1150462048E0349BDF41039A6627EF3DFA6627EF312C9
S9030000FC
