S12300006720474345203230323580FD0DF85028A6444F444745204348414C4C454E4745F7
S105002080005A
S1230021008E0000271BCE006033C90B3E33C9000033C90000108EC880A6C0A7A0301F2678
S1220041F88E002E270A108EC8806FA0301F26FABD0B225D2706CC0000FDCBFE7EF000DF
S1110060398E0060BFC8827FC8817FC8803996
S123006ECC0000FDC885C631F7C88439F6C88427055AF7C88439C631F7C884FCC885C3005B
S108008E01FDC88539E5
S123009334408EC8896F846F1F6F1ECE00DBEF0130058CC8A226EE8EC887BFC8A035C034E3
S12300B3403404BEC8A0C6FFEE03118300DB2704326135C0CE00DCEF036F02C61EE701E6F4
S10D00D3E4E7845F326135C0393977
S12300DDCC0000FDC8A27FC8A4BD006EBD031CBD0757BD0061BD00938E00FCBFC8A5398ED4
S12300FD0103BFC8A5398E010ABFC8A539327FBDF192F6C8A4E7E2C6ECE7E2C664BD0B37B8
S123011DBDF1BAF6C811E7623262C5012631C608E4E427037AC8A4C606E4E4C1062712C68D
S123013D02E4E42620C604E4E427068E078EBFC8ACBD007AAD9FC8A8AD9FC8AC3261397C7E
S123015DC8A43261398E077CBFC8AC20E43939007EC9FF006E00F808FF920000F000FF92C6
S123017D0000F8F8FF00920008F8FF6E00001000FF6E00008A7F0100763FFF920000F000B3
S123019DFF92000076FF01007EC9FF006E00F808FF920000F8F8FF009200F8F8FF920000F0
S12301BDF808FF006E007E0901007EC9FF006E00F808FF920000F000FF920000F8F8FF0074
S12301DD92007E00FF006E000009010076C1FF920000F808FF006E007608FF920000F00043
S12301FDFF920000760101007E37FF009200F8F8FF920000F808FF006E00F808FF92000010
S123021DF8F8FF0092007E77010076C1FF920000F000FF920000F808FF006E000808FF6E13
S123023D000008F8FF009200007701007EC9FF006E00F808FF920000F000FF920000760157
S123025D01007EC9FF006E00F808FF920000F000FF920000F8F8FF00920008F8FF6E0000C8
S123027D1000FF6E00008A08FF006E00000901008A3FFF6E00001000FF6E000008F8FF0025
S123029D9200F8F8FF920000F808FF006E00000901016C019401A401C601E802040226022C
S12302BD48025E028CFFC070FFC09000007FFF4070FF409000007FFFC070FFC09000007FF0
S11602DD00007FFF7F7F000081FF817F00607F00003901F5
S12302F0060504040302020201010006050403020202010100000605040303020102010196
S1230310000605040302020201010000F6C8A44F1F01E68902F08E0506BFC8A8F7C8A73916
S1230330FFF0FC00E4F9FFD8F600CCF3FFC0F000B4EDFFA8EA009CE7FF90E40084E1FFBC5E
S1230350EFFFBCEF00B6ED00B6EEFFB0ECFFB0EC00AAEA00AAEBFF84E10100F8FEFFECFB09
S123037000DCF7FFD4F500C4F1FFBCEF00ACEBFFA4E90094E5FF8CE30084E100F8FEFFB853
S1230390EEFFBCEF00AEEB00B6EEFFACEBFFB0EC00A2E800AAEBFF84E10100F0FCFFE4F9F7
S12303B000D8F6FFCCF300C0F0FFB4ED00A8EAFF9CE70090E4FF84E10084E100F4FDFFB05C
S12303D0ECFFBCEF00AAEA00B6EEFFA4E9FFB0EC01FFF8FE00F0FCFFE0F800D0F4FFC8F2DE
S12303F000B8EEFFB0EC00A0E8FF98E60088E2FF81E00084E100ECFBFFACEBFFBCEF00A2AB
S1230410E800B6EEFFA0E8FFB0EC01FFF00400E407FFD80A00CC0DFFC01000B413FFA8162E
S1230430009C19FF901C00841FFFBC11FFBC1100B61300B612FFB014FFB01400AA1600AA8C
S123045015FF841F0100F802FFEC0500DC09FFD40B00C40FFFBC1100AC15FFA41700941B5A
S1230470FF8C1D00841F00F802FFB812FFBC1100AE1500B612FFAC15FFB01400A21800AA1C
S123049015FF841F0100F004FFE40700D80AFFCC0D00C010FFB41300A816FF9C1900901C44
S12304B0FF841F00841F00F403FFB014FFBC1100AA1600B612FFA417FFB01401FFF802005E
S12304D0F004FFE00800D00CFFC80E00B812FFB01400A018FF981A00881EFF812000841F9D
S12304F000EC05FFAC15FFBC1100A21800B612FFA018FFB01401BDF2A5BDF354C67FD704F6
S1230510C624E7E2C6F1BD0B8EC6A8D704C680E7E2CB2EBD0B89BDF354C67FD704C624E770
S1230530E2C6FBBD0B8EC610D7048E0330BDF410BDF354C67FD704C624E7E2C605BD0B8E83
S1230550C610D7048E041BBDF410BDF354C67FD704C624E7E2C60FBD0B8EC6A8D704C680D7
S1230570E7E2C652BD0B89F6C8A732665D27055AF7C8A7398E0598BFC8A8F6C8A44F1F018B
S1230590E68902FBF7C8A739BDF2A5BDF354C67FD704C624E7E2C6F1BD0B8EC6A8D704C6F5
S12305B080E7E2CB2EBD0B89BDF354C67FD704C624E7E2C6FBBD0B8EC610D7048E036ABD3D
S12305D0F410BDF354C67FD704C624E7E2C605BD0B8EC610D7048E0455BDF410BDF354C6E8
S12305F07FD704C624E7E2C60FBD0B8EC6A8D704C680E7E2C652BD0B89F6C8A732665D276D
S1230610055AF7C8A7398E062ABFC8A8F6C8A44F1F01E6890306F7C8A739BDF2A5BDF3549B
S1230630C67FD704C624E7E2C6F1BD0B8EC6A8D704C680E7E2CB2EBD0B89BDF354C67FD704
S123065004C624E7E2C6FBBD0B8EC610D7048E03AABDF410BDF354C67FD704C624E7E2C66E
S123067005BD0B8EC610D7048E0495BDF410BDF354C67FD704C624E7E2C60FBD0B8EC6A802
S1230690D704C680E7E2C652BD0B89F6C8A732665D27055AF7C8A7398E06BCBFC8A8F6C837
S12306B0A44F1F01E6890311F7C8A739BDF2A5BDF354C67FD704C624E7E2C6F1BD0B8EC6F3
S12306D0A8D704C680E7E2CB2EBD0B89BDF354C67FD704C624E7E2C6FBBD0B8EC610D7048B
S12306F08E03E1BDF410BDF354C67FD704C624E7E2C605BD0B8EC610D7048E04CCBDF410EB
S1230710BDF354C67FD704C624E7E2C60FBD0B8EC6A8D704C680E7E2C652BD0B89F6C8A79D
S121073032665D27055AF7C8A7398E0506BFC8A8F6C8A44F1F01E68902F0F7C8A739F4
S123074EAE00520A520A0C0ABA8E0766BFC8AC7FC8ABC601F7C8AA39327EBDF2A5F6C8AA5C
S123076E4FEDE458491F01AD990751326239F6C8AA27045AF7C8AA8E0766BFC8AC7E0766AC
S123078EF6C8AAC10227045CF7C8AA8E0766BFC8AC7E07663900A0B0FF00B0FF7F00FF005E
S12307AE50FF8000001000FF103C000028FFF03C00F000FF0050FF7F00FF00B0FF800000BF
S12307CE2000FF00B0FF00B0004000FF103CFF0028FFF03C01002088FF2800FF003CFFDCC6
S12307EE0000E0ECFF7040FF0020FF9040002028FF2800FF00C4FFDC00002DE4FF0030FF32
S123080E10F8FF00D00000D0FF00D0FFF0F8FF003000E40CFF1008FF0018FFF0080100081C
S123082E50FFB000FFE810FF0050FF1810FF5000FF18F0FF00B0FFE8F000F800FF10C4FF94
S123084E00D8FFF0C4000800FFB000FFE810FF1810FF080000F0E8FF10340000C4FF0050F1
S123086EFF00500000C4FFF0400100D05800D058FF18F0FF5000FF181000E010FF0014FF54
S123088E1008FF3800FF10F8FFF0F8FFC800FFF008005800FF00B8FFF0F8FFD8000000EC92
S12308AEFF1C14001C10FF281CFF00D8FFC094FFC094003458003458FF00E4FF1018FF00EA
S12308CE2000002EFF0020FFF0F8FF00E0010008B0FF1810FFF00C0090F4FF00B0FF18F0BE
S12308EEFF5000FF1810FF005000FC1CFF3000FF1008FF0048FFF0F8FFF800001808FFF48B
S123090E0800DCECFF182CFF001CFFE8F0010008B0FFB000FFE8F0FF00B0FF18F0FF50007C
S123092EFF1810FF0050FFE81000F800FF103CFF0028FFF03C000800FFB000FFE8F0FF18FE
S123094EF0FF080000F018FF10CC00003CFF00B0FF00B000003CFFF0C00100D0A800D0A835
S123096EFF1810FF5000FF18F000E0F0FF00ECFF10F8FF3800FF1008FFF008FFC800FFF02B
S123098EF8005800FF0048FFF008FFD800000014FF1CEC001CF0FF28E4FF0028FFC06CFF5D
S12309AEC06C0034A80034A8FF001CFF10E8FF00E00000D2FF00E0FFF008FF002001000880
S12309CE50FF18F0FFF0F400900CFF0050FF1810FF5000FF18F0FF00B000FCE4FF3000FFA6
S12309EE10F8FF00B8FFF008FFF8000018F8FFF4F800DC14FF18D4FF00E4FFE81001BDF3D7
S1230A0E54C67FD704F6C8AA4F1F01C690E7E2E689074EBD0B8EC610D7048E07A3BDF41096
S1230A2EBDF354C67FD704F6C8AA4F1F01C690E7E2E689074EBD0B8EC610D70432628E0796
S1230A4EE37EF410BDF354C67FD704F6C8AA4F1F01C690E7E2E689074EBD0B8EC610D7043A
S1230A6E8E082CBDF410BDF354C67FD704F6C8AA4F1F01C690E7E2E689074EBD0B8EC610D7
S1230A8ED7048E0878BDF410BDF354C67FD704F6C8AA4F1F01C690E7E2E689074EBD0B8E66
S1230AAEC610D70432638E08DC7EF410BDF354C67FD704F6C8AA4F1F01C690E7E2E689075A
S1230ACE4EBD0B8EC610D7048E091CBDF410BDF354C67FD704F6C8AA4F1F01C690E7E2E63B
S1230AEE89074EBD0B8EC610D7048E0968BDF410BDF354C67FD704F6C8AA4F1F01C690E707
S1230B0EE2E689074EBD0B8EC610D70432638E09CC7EF4107FC8A4CC0000FDC8A28E00DD13
S1230B2EBFC8A5AD9FC8A520FA327BE7E4C680E764C630E762E761E668C163230E6C61E6BE
S1230B4E61E668CB9CE768C16322F2E668C109230E6C62E662E668CBF6E768C10922F2E665
S1230B6E68CB30E763C6CCD70CC67FD704E6E434043062E668BD0B93326639A6627EF3DFBB
S1130B8EA6627EF3123440A6643384BDF37A35C074
S9030000FC
