S12300006720474345203230323580FD0DF85028A6444F444745204348414C4C454E4745F7
S105002080005A
S1230021008E0004271BCE006133C9050D33C9000033C90000108EC880A6C0A7A0301F26AA
S1230041F88E0000270A108EC8846FA0301F26FABD038A5D27068E0000BFCBFEBDF00039AC
S1230061FFFCFF00FCFFFFFCFF00FCFFFFF8FE00F8FEFFF8FE00F8FEFFF4FD00F4FDFFF4E7
S1230081FD00F4FDFFF0FC00F0FCFFF0FC00F0FCFFECFB01FFFC0100FC01FFFC0100FC01E6
S12300A1FFF80200F802FFF80200F802FFF40300F403FFF40300F403FFF00400F004FFF0A5
S12300C10400F004FFEC050100E8ECFF00ECFF2000FF0014FFE000000400FF040F00000A42
S12300E1FFFC0F00FC00FF0014FF2000FF00ECFFE000000800FF00D8001000FF040FFF00F9
S12301010AFFFC0FFF1CF0FF00F800F90CFF000CFF04FEFF00F40000F4FF00F4FFFCFEFFE1
S1230121000C000704FFE4F00008F6FF0A00FF000FFFF70000001EFF0900FF000FFFF6009C
S11401410005E7FF04FEFF00FAFFFCFE0100E8EC01F4
S1230152327FE7E4E6E4C1012610F6C880C102271CF6C8805CF7C8802013E6E4C1FF260D3E
S1130172F6C8805D2707F6C8805AF7C8803261390D
S1230182F6C8835D2619F6C8815CF7C881F6C881C10326037FC881F6C882F7C8832007F60E
S12301A2C8835AF7C883393276BDF2A5BD0182BDF354C67FD704C624E7E2C6F1BD055E32FD
S12301C261C6FFD704C6B0E7E2C6CCBD05593261BDF354C67FD704F6C881C1022623C62440
S12301E2E7E2C6FBBD055E3261C6FCE7E2C6FFBD05593261C6FCE7E2C6FFBD055E3261209B
S12302022BF6C881E761C6FBE7E4E6E4E061E762F6C881E763C609E0635858E767E662E77E
S123022266E667E7E2E667BD055E32618E0465BDF410BDF354C67FD704F6C881C102262315
S1230242C624E7E2C605BD055E3261C6FCE7E2C601BD05593261C6FCE7E2C601BD055E32C3
S1230262612027F6C881E7E4E6E4CB05E764F6C881E765C609E0655858E769E664E768E6C3
S123028269E7E2E669BD055E32618E0499BDF410BDF354C67FD704C624E7E2C60FBD055E6C
S12302A23261C6FFD704C6B0E7E2C634BD05593261326A39BDF354C67FD7046FE25FBD05B3
S12302C25E3261F6C882860A3DCB32D7048E04CDBDF41039B90047327FBDF192BD01A9BDD4
S12302E2F1BAF6C811C4015D2707C6FFBD0152200DF6C811C4045D2705C601BD0152F6C877
S123030211C4025D2717F6C882C1012607C632F7C8822026F6C8825AF7C882201DF6C811D0
S1230322C4085D2715F6C882C1322607C601F7C8822007F6C8825CF7C882F6C8803404C6AA
S1230342B0E7E2C678BD04FD3262F6C8823404C63CE7E2C678BD04FD3262BDF2A5BDF35463
S1230362C67FD704F6C8804F1F01E68902D6E7E4C690E7E2E661BD055E3261C640D7048E10
S123038203DCBDF41016FF51BD02D90030F0FF0020FFE000FF00E0FF200000E010FFE000CE
S12303A20010E0FF004000D0F0FF20F0FFE0F0010000001900FF3200FF00F6FF0A0AFF0A0E
S12303C2ECFF1E00FF0A0AFF0014FFF60AFFE200FFF6ECFFF60AFF00F60100E8ECFF00EC73
S12303E2FF2000FF0014FFE000000400FF040F00000AFFFC0F00FC00FF0014FF2000FF008F
S1230402ECFFE000000800FF00D8001000FF040FFF000AFFFC0FFF1CF0FF00F800F90CFFF1
S1230422000CFF04FEFF00F40000F4FF00F4FFFCFEFF000C000704FFE4F00008F6FF0A00E6
S1230442FF000FFFF70000001EFF0900FF000FFFF6000005E7FF04FEFF00FAFFFCFE01FF8A
S1230462007F01FFFCFF00FCFFFFFCFF00FCFFFFF8FE00F8FEFFF8FE00F8FEFFF4FD00F452
S1230482FDFFF4FD00F4FDFFF0FC00F0FCFFF0FC00F0FCFFECFB01FFFC0100FC01FFFC01EE
S12304A200FC01FFF80200F802FFF80200F802FFF40300F403FFF40300F403FFF00400F096
S12304C204FFF00400F004FFEC05010008FAFFF400FF000CFF0C00FF00F401BDF192BDF24C
S12304E2A5BDF354C67FD7046FE25FBD055E3261C6FFD7048E03DCBDF410393279E7E4C687
S123050280E764C630E762C630E761200BE6615CE761E66ACB9CE76AE66AC16322EF200BBF
S1230522E6625CE762E66ACBF6E76AE66AC10922EFE66ACB30E763C6CCD70CC67FD704E62B
S1230542E4E766E669E7653061E666E7E2E666BD05633261326739A6627EF3DFA6627EF37C
S10F0562123440A6643384BDF37A35C023
S9030000FC
