S12300006720474345203230323580FD0DF85028A6444F444745204348414C4C454E4745F7
S105002080005A
S1230021008E0003271BCE006133C903C533C9000033C90000108EC880A6C0A7A0301F26F5
S1230041F88E0004270A108EC8836FA0301F26FABD03A35D27068E0000BFCBFEBDF0003990
S12300617FC8838E0000BFC88439F6C883C131260D7FC883BEC8843001BFC8842007F6C884
S1090081835CF7C883391B
S1230087C601F7C88639FFFCFF00FCFFFFFCFF00FCFFFFF8FE00F8FEFFF8FE00F8FEFFF45D
S12300A7FD00F4FDFFF4FD00F4FDFFF0FC00F0FCFFF0FC00F0FCFFECFB01FFFC0100FC01D8
S12300C7FFFC0100FC01FFF80200F802FFF80200F802FFF40300F403FFF40300F403FFF06D
S11100E70400F004FFF00400F004FFEC050137
S12300F53274BDF2A5BDF354C67FD704C624E7E2C6F1BD04213261C6FFD704C6B0E7E2C645
S1230115CCBD041C3261F6C886E761C60AE061E767F6C880E1672618F6C881C10226057F2F
S1230135C8812007F6C8815CF7C8817FC8802007F6C8805CF7C880BDF354C67FD704F6C8B2
S123015581C1022623C624E7E2C6FBBD04213261C6FCE7E2C6FFBD041C3261C6FCE7E2C6FF
S1230175FFBD04213261202BF6C881E762C6FBE7E4E6E4E062E763F6C881E764C609E064A0
S12301955858E769E663E768E669E7E2E669BD042132618E008DBDF410BDF354C67FD704D2
S12301B5F6C881C1022623C624E7E2C605BD04213261C6FCE7E2C601BD041C3261C6FCE77D
S12301D5E2C601BD042132612027F6C881E7E4E6E4CB05E765F6C881E766C609E066585860
S12301F5E76BE665E76AE66BE7E2E66BBD042132618E00C1BDF410BDF354C67FD704C624FA
S1230215E7E2C60FBD04213261C6FFD704C6B0E7E2C634BD041C3261326C3900E8ECFF00BF
S1230235ECFF2000FF0014FFE000000400FF040F00000AFFFC0F00FC00FF0014FF2000FF51
S123025500ECFFE000000800FF00D8001000FF040FFF000AFFFC0FFF1CF0FF00F800F90C9F
S1230275FF000CFF04FEFF00F40000F4FF00F4FFFCFEFF000C000704FFE4F00008F6FF0A96
S123029500FF000FFFF70000001EFF0900FF000FFFF6000005E7FF04FEFF00FAFFFCFE0138
S10B02B500E8EC0100E8EC0193
S12302BD327FE7E4E6E4C1012610F6C882C102271CF6C8825CF7C8822013E6E4C1FF260DCC
S12302DDF6C8825D2707F6C8825AF7C882326139BDF1BAF6C811C4015D2707C6FFBD02BDC3
S12302FD200DF6C811C4045D2705C601BD02BDF6C811C4025D2717F6C886C1012607C60A1A
S123031DF7C8862026F6C8865AF7C886201DF6C811C4085D2715F6C886C10A2607C601F7E3
S123033DC8862007F6C8865CF7C88639B90047327FBDF2A5BDF354C67FD704F6C8824F1F32
S123035D01E6890349E7E4C690E7E2E661BD04213261C640D7048E0230BDF410326139BD2F
S123037D0061BD0087BDF192BD006BBD00F5BD02EDF6C8863404C63CE7E2C678BD03A632D4
S123039D62BD034C20DFBD037C3278E7E4C680E765C630E7636D6B2D06C62BE7612006C61C
S12303BD2DE761606BE66BC1632206C630E7622017C631E762E66BCB9CE76B200BE6635CAF
S12303DDE763E66BCBF6E76BE66BC1092EEFE66BCB30E764C6CCD70CC67FD704E6E4E767D2
S12303FDE66AE7663061E667E7E2E667BD041132613268393440A6643384BDF37A35C0A619
S10C041D627EF3DFA6627EF31295
S9030000FC
