S12300006720474345203230323580FD0DF85028A6444F444745204348414C4C454E4745F7
S105002080005A
S1230021008E0001271BCE006033C9100333C9000033C90000108EC880A6C0A7A0301F26AD
S1220041F88E0031270A108EC8816FA0301F26FABD0FD75D2706CC0000FDCBFE7EF00022
S1110060398E0060BFC8837FC8827FC8813993
S123006ECC0000FDC886C631F7C88539F6C88527055AF7C88539C631F7C885FCC886C30055
S108008E01FDC88639E4
S123009334408EC88A6F846F1F6F1ECE00DBEF0130058CC8A326EE8EC888BFC8A135C034DF
S12300B3403404BEC8A1C6FFEE03118300DB2704326135C0CE00DCEF036F02C61EE701E6F3
S10D00D3E4E7845F326135C0393977
S12300DDCC0000FDC8A37FC8A5BD006EBD03CABD0833BD0061BD00938E00FCBFC8A6398E46
S11000FD0103BFC8A6398E010ABFC8A63989
S123010A327FBDF192F6C88027075AF7C880326139C60AF7C880F6C8ACE7E2C6ECE7E2C68C
S123012A64BD0FECBDF1BAF6C811E7623262C501262DC608E4E427037AC8A5C606E4E4C16C
S123014A06270EC602E4E4271CBEC8B08C084B2749BD007AAD9FC8A9AD9FC8B03261397CFE
S123016AC8A5326139C604E4E427E6BEC8B08C084B26DEF6C8AB1026006D8E0ACABFC8B0DB
S123018AF6C8A54F1F01E68907FCF7C8AF8E0FBBBFC8ADC603F7C8AB20B7F6C8ABC10127B7
S12301AA25C10226AC8E0CD4BFC8B0F6C8A54F1F01E68907FCF7C8AF8E0FC9BFC8ADC603BD
S12301CAF7C8AB16FF8B8E0DD8BFC8B0F6C8A54F1F01E68907FCF7C8AF8E0FD0BFC8ADC644
S12301EA03F7C8AB16FF6AC1011026FF648E0BCEBFC8B0F6C8A54F1F01E68907FCF7C8AF5A
S123020A8E0FC2BFC8ADC603F7C8AB16FF433939007EC9FF006E00F808FF920000F000FF0C
S123022A920000F8F8FF00920008F8FF6E00001000FF6E00008A7F0100763FFF920000F073
S123024A00FF92000076FF01007EC9FF006E00F808FF920000F8F8FF009200F8F8FF920042
S123026A00F808FF006E007E0901007EC9FF006E00F808FF920000F000FF920000F8F8FFC6
S123028A0092007E00FF006E000009010076C1FF920000F808FF006E007608FF920000F095
S12302AA00FF920000760101007E37FF009200F8F8FF920000F808FF006E00F808FF920062
S12302CA00F8F8FF0092007E77010076C1FF920000F000FF920000F808FF006E000808FFD4
S12302EA6E000008F8FF009200007701007EC9FF006E00F808FF920000F000FF920000763D
S123030A0101007EC9FF006E00F808FF920000F000FF920000F8F8FF00920008F8FF6E0019
S123032A001000FF6E00008A08FF006E00000901008A3FFF6E00001000FF6E000008F8FF77
S123034A009200F8F8FF920000F808FF006E00000901021A024202520274029602B202D4B9
S123036A02F6030C033AFFC070FFC09000007FFF4070FF409000007FFFC070FFC0900000B3
S117038A7F00007FFF7F7F000081FF817F00607F00003901C7
S123039E0605040403020202010100060504030202020101000006050403030201020101E7
S12303BE000605040302020201010000F6C8A54F1F01E689039E8E05B4BFC8A9F7C8A83908
S12303DEFFF0FC00E4F9FFD8F600CCF3FFC0F000B4EDFFA8EA009CE7FF90E40084E1FFBCB0
S12303FEEFFFBCEF00B6ED00B6EEFFB0ECFFB0EC00AAEA00AAEBFF84E10100F8FEFFECFB5B
S123041E00DCF7FFD4F500C4F1FFBCEF00ACEBFFA4E90094E5FF8CE30084E100F8FEFFB8A4
S123043EEEFFBCEF00AEEB00B6EEFFACEBFFB0EC00A2E800AAEBFF84E10100F0FCFFE4F948
S123045E00D8F6FFCCF300C0F0FFB4ED00A8EAFF9CE70090E4FF84E10084E100F4FDFFB0AD
S123047EECFFBCEF00AAEA00B6EEFFA4E9FFB0EC01FFF8FE00F0FCFFE0F800D0F4FFC8F22F
S123049E00B8EEFFB0EC00A0E8FF98E60088E2FF81E00084E100ECFBFFACEBFFBCEF00A2FC
S12304BEE800B6EEFFA0E8FFB0EC01FFF00400E407FFD80A00CC0DFFC01000B413FFA81680
S12304DE009C19FF901C00841FFFBC11FFBC1100B61300B612FFB014FFB01400AA1600AADE
S12304FE15FF841F0100F802FFEC0500DC09FFD40B00C40FFFBC1100AC15FFA41700941BAC
S123051EFF8C1D00841F00F802FFB812FFBC1100AE1500B612FFAC15FFB01400A21800AA6D
S123053E15FF841F0100F004FFE40700D80AFFCC0D00C010FFB41300A816FF9C1900901C95
S123055EFF841F00841F00F403FFB014FFBC1100AA1600B612FFA417FFB01401FFF80200AF
S123057EF004FFE00800D00CFFC80E00B812FFB01400A018FF981A00881EFF812000841FEE
S123059E00EC05FFAC15FFBC1100A21800B612FFA018FFB01401BDF2A5BDF354C67FD70447
S12305BEC624E7E2C6F1BD105EC6A8D704C680E7E2CB2EBD1059BDF354C67FD704C624E718
S12305DEE2C6FBBD105EC610D7048E03DEBDF410BDF354C67FD704C624E7E2C605BD105E7D
S12305FEC610D7048E04C9BDF410BDF354C67FD704C624E7E2C60FBD105EC6A8D704C680A6
S123061EE7E2C652BD1059F6C8A832665D27055AF7C8A8398E0646BFC8A9F6C8A54F1F0154
S123063EE68903A9F7C8A839BDF2A5BDF354C67FD704C624E7E2C6F1BD105EC6A8D704C6C1
S123065E80E7E2CB2EBD1059BDF354C67FD704C624E7E2C6FBBD105EC610D7048E0418BD35
S123067EF410BDF354C67FD704C624E7E2C605BD105EC610D7048E0503BDF410BDF354C6B5
S123069E7FD704C624E7E2C60FBD105EC6A8D704C680E7E2C652BD1059F6C8A832665D2713
S12306BE055AF7C8A8398E06D8BFC8A9F6C8A54F1F01E68903B4F7C8A839BDF2A5BDF3548D
S12306DEC67FD704C624E7E2C6F1BD105EC6A8D704C680E7E2CB2EBD1059BDF354C67FD7AC
S12306FE04C624E7E2C6FBBD105EC610D7048E0458BDF410BDF354C67FD704C624E7E2C63C
S123071E05BD105EC610D7048E0543BDF410BDF354C67FD704C624E7E2C60FBD105EC6A8FA
S123073ED704C680E7E2C652BD1059F6C8A832665D27055AF7C8A8398E076ABFC8A9F6C801
S123075EA54F1F01E68903BFF7C8A839BDF2A5BDF354C67FD704C624E7E2C6F1BD105EC6BF
S123077EA8D704C680E7E2CB2EBD1059BDF354C67FD704C624E7E2C6FBBD105EC610D70432
S123079E8E048FBDF410BDF354C67FD704C624E7E2C605BD105EC610D7048E057ABDF41009
S12307BEBDF354C67FD704C624E7E2C60FBD105EC6A8D704C680E7E2C652BD1059F6C8A844
S12107DE32665D27055AF7C8A8398E05B4BFC8A9F6C8A54F1F01E689039EF7C8A839E5
S12307FC07070707070707070707070606060606060606060606AE00520F140EDC0F67FACD
S123081CF4EEE9E3DD4C46403B352F060C12171D23B4BAC0C5CBD18E084BBFC8B07FC8AFA4
S123083CCC0000FDC8AD7FC8ACC601F7C8AB39327EBDF2A5F6C8AB4FEDE458491F01AD9969
S123085C081532623900A0B0FF00B0FF7F00FF0050FF8000001000FF103C000028FFF03C95
S123087C00F000FF0050FF7F00FF00B0FF8000002000FF00B0FF00B0004000FF103CFF0065
S123089C28FFF03C01002088FF2800FF003CFFDC0000E0ECFF7040FF0020FF90400020284E
S12308BCFF2800FF00C4FFDC00002DE4FF0030FF10F8FF00D00000D0FF00D0FFF0F8FF00B8
S12308DC3000E40CFF1008FF0018FFF00801000850FFB000FFE810FF0050FF1810FF5000EF
S12308FCFF18F0FF00B0FFE8F000F800FF10C4FF00D8FFF0C4000800FFB000FFE810FF1831
S123091C10FF080000F0E8FF10340000C4FF0050FF00500000C4FFF0400100D05800D058DF
S123093CFF18F0FF5000FF181000E010FF0014FF1008FF3800FF10F8FFF0F8FFC800FFF025
S123095C08005800FF00B8FFF0F8FFD8000000ECFF1C14001C10FF281CFF00D8FFC094FFEF
S123097CC094003458003458FF00E4FF1018FF002000002EFF0020FFF0F8FF00E0010008A6
S123099CB0FF1810FFF00C0090F4FF00B0FF18F0FF5000FF1810FF005000FC1CFF3000FF20
S12309BC1008FF0048FFF0F8FFF800001808FFF40800DCECFF182CFF001CFFE8F0010008B9
S12309DCB0FFB000FFE8F0FF00B0FF18F0FF5000FF1810FF0050FFE81000F800FF103CFF0D
S12309FC0028FFF03C000800FFB000FFE8F0FF18F0FF080000F018FF10CC00003CFF00B01A
S1230A1CFF00B000003CFFF0C00100D0A800D0A8FF1810FF5000FF18F000E0F0FF00ECFFF4
S1230A3C10F8FF3800FF1008FFF008FFC800FFF0F8005800FF0048FFF008FFD8000000141A
S1230A5CFF1CEC001CF0FF28E4FF0028FFC06CFFC06C0034A80034A8FF001CFF10E8FF0012
S1230A7CE00000D2FF00E0FFF008FF002001000850FF18F0FFF0F400900CFF0050FF18105A
S1230A9CFF5000FF18F0FF00B000FCE4FF3000FF10F8FF00B8FFF008FFF8000018F8FFF473
S1230ABCF800DC14FF18D4FF00E4FFE81001327DF6C8AFE7E44FED611F011E01F3C8AD1E1F
S1230ADC01E684F7C8ACE6E45AF7C8AFBDF2A5BDF354C67FD704CB11E7E2F6C8ACBD105EDC
S1230AFCC610D7048E08EABDF410BDF354C67FD704CB11E7E2F6C8ACBD105EC610D7048E47
S1230B1C0936BDF410BDF354C67FD704CB11E7E2F6C8ACBD105EC610D7048E099ABDF410B4
S1230B3C32637DC8AF26198E0B5FBFC8B0F6C8A54F1F01E6890807F7C8AF8E081BBFC8ADFB
S1230B5C326339327DF6C8AFE7E44FED611F011E01F3C8AD1E01E684F7C8ACE6E45AF7C8A5
S1230B7CAFBDF2A5BDF354C67FD704CB11E7E2F6C8ACBD105EC610D7048E0861BDF410BDCE
S1230B9CF354C67FD704CB11E7E2F6C8ACBD105EC610D7048E08A1BDF41032627DC8AF263D
S1230BBC0EC601F7C8AB7FC8AC8E084BBFC8B0326339327DF6C8AFE7E44FED611F011E013A
S1230BDCF3C8AD1E01E684F7C8ACE6E45AF7C8AFBDF2A5BDF354C67FD704CB11E7E2F6C82C
S1230BFCACBD105EC610D7048E0861BDF410BDF354C67FD704CB11E7E2F6C8ACBD105EC671
S1230C1C10D7048E08A1BDF41032627DC8AF26198E0C48BFC8B0F6C8A54F1F01E6890807A1
S1230C3CF7C8AF8E0821BFC8AD326339327DF6C8AFE7E44FED611F011E01F3C8AD1E01E63D
S1230C5C84F7C8ACE6E45AF7C8AFBDF2A5BDF354C67FD704CB11E7E2F6C8ACBD105EC6106B
S1230C7CD7048E09DABDF410BDF354C67FD704CB11E7E2F6C8ACBD105EC610D7048E0A267A
S1230C9CBDF410BDF354C67FD704CB11E7E2F6C8ACBD105EC610D7048E0A8ABDF4103263EC
S1230CBC7DC8AF2610C602F7C8ABC652F7C8AC8E084BBFC8B0326339327DF6C8AFE7E44F19
S1230CDCED611F011E01F3C8AD1E01E684F7C8ACE6E45AF7C8AFBDF2A5BDF354C67FD70401
S1230CFCCB11E7E2F6C8ACBD105EC610D7048E09DABDF410BDF354C67FD704CB11E7E2F6F8
S1230D1CC8ACBD105EC610D7048E0A26BDF410BDF354C67FD704CB11E7E2F6C8ACBD105E86
S1230D3CC610D7048E0A8ABDF41032637DC8AF26198E0D69BFC8B0F6C8A54F1F01E68908B3
S1230D5C07F7C8AF8E0827BFC8AD326339327DF6C8AFE7E44FED611F011E01F3C8AD1E01F5
S1230D7CE684F7C8ACE6E45AF7C8AFBDF2A5BDF354C67FD704CB11E7E2F6C8ACBD105EC674
S1230D9C10D7048E0861BDF410BDF354C67FD704CB11E7E2F6C8ACBD105EC610D7048E08EB
S1230DBCA1BDF41032627DC8AF260EC601F7C8AB7FC8AC8E084BBFC8B0326339327DF6C87E
S1230DDCAFE7E44FED611F011E01F3C8AD1E01E684F7C8ACE6E45AF7C8AFBDF2A5BDF35457
S1230DFCC67FD704CB11E7E2F6C8ACBD105EC610D7048E0861BDF410BDF354C67FD704CB21
S1230E1C11E7E2F6C8ACBD105EC610D7048E08A1BDF41032627DC8AF26198E0E52BFC8B0AE
S1230E3CF6C8A54F1F01E6890807F7C8AF8E082DBFC8AD326339327DF6C8AFE7E44FED618B
S1230E5C1F011E01F3C8AD1E01E684F7C8ACE6E45AF7C8AFBDF2A5BDF354C67FD704CB11F1
S1230E7CE7E2F6C8ACBD105EC610D7048E08EABDF410BDF354C67FD704CB11E7E2F6C8ACCF
S1230E9CBD105EC610D7048E0936BDF410BDF354C67FD704CB11E7E2F6C8ACBD105EC61094
S1230EBCD7048E099ABDF41032637DC8AF260E7FC8ABC6AEF7C8AC8E084BBFC8B0326339D1
S1230EDCBDF354C67FD704CB11E7E2F6C8ACBD105EC610D7048E0861BDF410BDF354C67FE2
S1230EFCD704CB11E7E2F6C8ACBD105EC610D70432628E08A17EF410BDF354C67FD704CBD0
S1230F1C11E7E2F6C8ACBD105EC610D7048E08EABDF410BDF354C67FD704CB11E7E2F6C8C9
S1230F3CACBD105EC610D7048E0936BDF410BDF354C67FD704CB11E7E2F6C8ACBD105EC657
S1230F5C10D70432638E099A7EF410BDF354C67FD704CB11E7E2F6C8ACBD105EC610D7042F
S1230F7C8E09DABDF410BDF354C67FD704CB11E7E2F6C8ACBD105EC610D7048E0A26BDF4A1
S1230F9C10BDF354C67FD704CB11E7E2F6C8ACBD105EC610D70432638E0A8A7EF41039D7C9
S1230FBCD1CBC5C0BAB429231D17120C06292F353B40464CD7DDE3E9EEF4FA7FC8A5CC0030
S1230FDC00FDC8A38E00DDBFC8A6AD9FC8A620FA327AE7E4C680E765C630E7636D692D4A87
S1230FFCC62BE761E669C1632234C630E762E669C1092F0E6C63E663E669CBF6E769C109F8
S123101C2EF2E669CB30E764C6CCD70CC67FD704E6E434043062E669BD104E326739C6319F
S123103CE762E669CB9CE76920C4C62DE761606920B23440A6643384BDF37A35C0A6627EAD
S10A105CF3DFA6627EF3122C
S9030000FC
