S12300006720474345203230323580FD0DF85028A6444F444745204348414C4C454E4745F7
S105002080005A
S1230021008E0000271BCE006133C900FE33C9000033C90000108EC880A6C0A7A0301F26C2
S1230041F88E0000270A108EC8806FA0301F26FABD00615D27068E0000BFCBFEBDF00039DC
S1230061BD013A20FB0030F0FF0020FFE000FF00E0FF200000E010FFE0000010E0FF00404E
S123008100D0F0FF20F0FFE0F0010000001900FF3200FF00F6FF0A0AFF0AECFF1E00FF0A4F
S12300A10AFF0014FFF60AFFE200FFF6ECFFF60AFF00F60100E8ECFF00ECFF2000FF001477
S12300C1FFE000000400FF040F00000AFFFC0F00FC00FF0014FF2000FF00ECFFE000000812
S12300E100FF00D8001000FF040FFF000AFFFC0FFF1CF0FF00F800F90CFF000CFF04FEFFDD
S123010100F40000F4FF00F4FFFCFEFF000C000704FFE4F00008F6FF0A00FF000FFFF70012
S123012100001EFF0900FF000FFFF6000005E7FF04FEFF00FAFFFCFE01BDF192BDF2A5BD60
S1210141F354C67FD7046FE25FBD015A3261C6FFD7048E00B5BDF41039A6627EF31272
S9030000FC
