S12300006720474345203230323580FD0DF85028A6444F444745204348414C4C454E4745F7
S105002080005A
S1230021008E0006271BCE006033C9040233C9000033C90000108EC880A6C0A7A0301F26B5
S1220041F88E0004270A108EC8866FA0301F26FABD04045D2706CC0000FDCBFE7EF00028
S11800607FC88639F6C886C1F02206CB05F7C886397FC8863910
S12300757FC88739FFFCFF00FCFFFFFCFF00FCFFFFF8FE00F8FEFFF8FE00F8FEFFF4FD00B0
S1230095F4FDFFF4FD00F4FDFFF0FC00F0FCFFF0FC00F0FCFFECFB01FFFC0100FC01FFFCEC
S12300B50100FC01FFF80200F802FFF80200F802FFF40300F403FFF40300F403FFF0040076
S11600D5F004FFF00400F004FFEC05015D51453A312A229E
S12300E87FC888393420327CF6C8874F1F01E68900E14FEDE4108E00033420AE62BD0418E8
S12301083262AFE4F6C8864FED621F104F3406AE64BD04181F104F10AFE41F01BD04071FFF
S123012810F7C888326635A0327DBDF2A5BDF354C67FD704C624E7E2C6F1BD042BC6FFD7D6
S123014804C6B0E7E2CB1CBD0426BDF354C67FD704F6C888E7633262C10210270066C6FB19
S1230168E061E7E4C609E06158583404E661BD042B32618E0079BDF410BDF354C67FD704BD
S1230188F6C888E762C10210270059C609E06258583404E663CB05E763BD042B32618E0008
S12301A8ADBDF410BDF354C67FD704C624E7E2C60FBD042BC6FFD704C6B0E7E2C634BD0493
S12301C826326539C624E7E2C6FBBD042BC6FCE7E2CB03BD0426C6FCE7E2CB03BD042B3206
S12301E86316FF8FC624E7E2C605BD042BC6FCE7E2C601BD0426C6FCE7E2C601BD042B32D9
S12302086316FF9A00E8ECFF00ECFF2000FF0014FFE000000400FF040F00000AFFFC0F00C6
S1230228FC00FF0014FF2000FF00ECFFE000000800FF00D8001000FF040FFF000AFFFC0FA6
S1230248FF1CF0FF00F800F90CFF000CFF04FEFF00F40000F4FF00F4FFFCFEFF000C00079A
S123026804FFE4F00008F6FF0A00FF000FFFF70000001EFF0900FF000FFFF6000005E7FF7C
S123028804FEFF00FAFFFCFE0100A0B0FF00B0FF7F00FF0050FF8000001000FF103C0000B7
S12302A828FFF03C00F000FF0050FF7F00FF00B0FF8000002000FF00B0FF00B0004000FF37
S12302C8103CFF0028FFF03CFF70C0FF00E000E430FF0030FF10F8FF00D00000D0FF00D0AE
S12302E8FFF0F8FF0030001C10FF90C00020D8FF2800FF003CFFDC00000078FF2400FF0092
S11803083CFFD80000149CFF10F8FF00E8FFF0F80100E8E80172
S123031DC601F7C88939C101270FC1FF270139F6C88927FA5AF7C88939F6C889C10227EEF9
S123033D5CF7C88939327FBDF1BAF6C811E7E4C501272BF6C8892639C602E4E4270CF6C8CD
S123035D8727045AF7C887326139C608E4E427F7F6C887C10627F05CF7C887326139C6044F
S123037DE4E427D4F6C889C10227CD5CF7C88920C75AF7C88920C1B90047C610D7048E024C
S11B039D917EF410C640D7048E020C7EF410C640D7048E020C7EF41033
S12303B5327EBDF2A5BDF354C67FD704F6C8894F1F01C690E7E2E6890394BD042BF6C889EE
S12303D54FED6158491F01AD99C88032633939BD0060BD0075BD00E8BD031DBDF192BD0043
S12303F564BD00ECBD0130BD0342BD03B520ECBD03E4EC6226037EF0003410BD0430326214
S12304151F0139EC6226037EF0003410BD04303590A6627EF3DFA6627EF312327D6F606CBE
S1230435604D2B066C60584920F8ED61EC656F656F66A3612406E3611CFE20021A01696660
S11004556965646166626A6026E832633995
S9030000FC
